:100950001209097F0112086EAB077D017F021208A0
:030960000080F024
:0909A900D2A1D2A0C2A0C2A12279
:0909B200C2A1C2A0D2A1D2A02270
:02089E00AD07A4
:1008A000E4FB74807E00A803088006CEA2E713CE86
:1008B00013D8F8FFEDF582EF558224FF92A0D2A164
:0608C000C2A10BBB08DC25
:0108C600220F
:1008EB00E4FFD2A0FE30A00D7480A806088002C3DE
:0D08FB0013D8FC4207D2A1C2A10EBE08E82E
:0109080022CC
:0A099F00EF24FF92A0D2A1C2A12212
:0B098700D2A0A2A0E433FFD2A1C2A1C5
:010992002242
:1008C7008F128C138D141209A97FA012089E12098A
:1008D70087AF1212089E120987AF1412089E1209D9
:0408E700870209B2C9
:02086E008F09F0
:100870001209A97FA012089E120987AF0912089ECB
:100880001209871209A97FA112089E12098712086E
:0D089000EB8F0A7F0112099F1209B2AF0A17
:01089D002238
:10096300C2A6C2A5C2A78F80D2A700C2A77F0102D9
:02097300093B3E
:10097500D2A6C2A5C2A78F80D2A700C2A77F0102B7
:02098500093B2C
:100909007F011209637F061209637F0C1209637F55
:09091900381209637F0102093B59
:100839008F0E8B0F8A108911AB0FAA10A9111209FB
:10084900226021AF0E050E120963AB0FAA10A91180
:10085900120922FF12097574012511F511E43510E9
:05086900F51080D4220F
:100800008F098D0A8B0BE509B40106E50A247F8068
:1008100009E509B40222E50A24BFFF120963E50BCA
:1008200075F00A842430FF120975E50B75F00A840F
:09083000E5F02430FF12097522E5
:06093B00AE071FEE600E86
:0C094100750C02750DEFD50DFDD50CFAFC
:03094D0080EC2219
:030000000209935F
:0C099300787FE4F6D8FD7581140209504D
:10092200BB010689828A83E0225002E722BBFE02D3
:09093200E32289828A83E4932206
:00000001FF
