:100C94004E6F7754696D653A003A005365740020CD
:060CA400200020202000CA
:0E0CF600010E1E010F1E01110A011001C100A6
:100CBF0020B10F7F0A120CAA20B1077FE8120CAAED
:030CCF00B200224E
:100C2C0020B0177F0A120CAA20B00F7F0A120CAA50
:0B0C3C000510E510B404037510012240
:100BDC0020B2247F0A120CAA20B21C7F0A120CAA83
:100BEC00E510B40103051122E510B40203050F2230
:080BFC00E510B40302050E220E
:100C040020B3247F0A120CAA20B31C7F0A120CAA58
:100C1400E510B40103151122E510B40203150F22E7
:080C2400E510B40302150E22D5
:10080000120C62120D0D120C47E4FDFC7F8E120AD1
:10081000C07BFF7A0C79947F80120BA77BFF7A0C48
:10082000799D7FC2120BA77BFF7A0C799D7FC51241
:100830000BA7E50E75F00A8475F010A4FFAEF0E585
:100840000E75F00A847C00EF25F0FDEC3EFC7F8005
:10085000120AC0E50F75F00A8475F010A4FFAEF01F
:10086000E50F75F00A847C00EF25F0FDEC3EFC7F7F
:1008700082120AC0E51175F00A8475F010A4FFAE6B
:10088000F0E51175F00A847C00EF25F0FDEC3EFCEC
:100890007F84120AC0120CBF2000030209847BFF70
:1008A0007A0C799F7F8D120BA7AB117D017F02120D
:1008B0000B6EAB0F7D047F02120B6EAB0E7D077FBC
:1008C00002120B6EE51064037038300035AB0E7DFC
:1008D000077F02120B6E7FE8120CAA7BFF7A0C795D
:1008E000A37FC6120BA77FE8120CAAAB0E7D077F71
:1008F00002120B6E120C2C120C04120BDC120CBF29
:1009000080C2E51064027038300035AB0F7D047F83
:1009100002120B6E7FE8120CAA7BFF7A0C79A37F80
:10092000C3120BA77FE8120CAAAB0F7D047F021243
:100930000B6E120C2C120C04120BDC120CBF80C2BA
:10094000E51064016003020898200003020898ABD8
:10095000117D017F02120B6E7FE8120CAA7BFF7AD9
:100960000C79A37FC0120BA77FE8120CAAAB117DF4
:10097000017F02120B6E120C2C120C04120BDC12F3
:100980000CBF80BC7BFF7A0C79A67F8D120BA7E58C
:100990000E75F00A8475F010A4FFAEF0E50E75F048
:1009A0000A847C00EF25F0FDEC3EFC7F80120AC03B
:1009B000E50F75F00A8475F010A4FFAEF0E50F7531
:1009C000F00A847C00EF25F0FDEC3EFC7F82120AE9
:1009D000C0E51175F00A8475F010A4FFAEF0E511C2
:1009E00075F00A847C00EF25F0FDEC3EFC7F84125C
:1009F0000AC07F81120B17AB077D077F02120B6EB7
:100A00007F83120B17AB077D047F02120B6E7F856D
:100A1000120B17AB077D017F02120B6E7F81120B49
:100A2000178F0E7F83120B178F0F7F85120B178F77
:040A30001102089512
:060CAA00AE071FEE600E14
:0C0CB000750C02750DEFD50DFDD50CFA8A
:030CBC0080EC22A7
:100CD200C2A6C2A5C2A78F80D2A700C2A77F010267
:020CE2000CAA5A
:100CE400D2A6C2A5C2A78F80D2A700C2A77F010245
:020CF4000CAA48
:100C62007F01120CD27F06120CD27F0C120CD27FA3
:090C720038120CD27F01020CAA19
:100BA7008F088B098A0A890BAB09AA0AA90B120CB1
:100BB7007B6021AF080508120CD2AB09AA0AA90B62
:100BC700120C7BFF120CE47401250BF50BE4350ABC
:050BD700F50A80D422A4
:100B6E008F088D098B0AE508B40106E509247F80FC
:100B7E0009E508B40222E50924BFFF120CD2E50AEA
:100B8E0075F00A842430FF120CE4E50A75F00A842D
:090B9E00E5F02430FF120CE42202
:050D0D00C2B5C2B622D0
:060AC0008C088D09AB0754
:100AC600D2B5E4FD74017E00A805088005C333CEC7
:100AD60033CED8F9FFEBF582EF558224FF92B4D2DC
:100AE600B6C2B60DBD08DDE4FD74017E00A805089A
:100AF6008005C333CE33CED8F9FFE5085EFEE5099F
:100B06005F4E24FF92B4D2B6C2B60DBD08DBC2B5A5
:010B160022BC
:020B1700A9072C
:100B1900E4FDD2B5FB74017E00A803088005C33348
:100B2900CE33CED8F9FFE9F582EF558224FF92B48E
:100B3900C2B6D2B60BBB08DDE4FBD2B6C2B630B43E
:100B49000D7401A803088002C333D8FC42050BBB0E
:100B590008E8C2B5C2B4EDC4540F75F00AA4FFED9C
:040B6900540F2FFFF7
:010B6D002265
:100C470075985043878053890F438920D28E758DBD
:0B0C5700F4758BF4C2ABD2ACD2AF221C
:080D05008F993099FDC299227B
:03000000020A34BD
:0C0A3400787FE4F6D8FD758120020A7B73
:100C7B00BB010689828A83E0225002E722BBFE0277
:090C8B00E32289828A83E49322AA
:100A4000020800E493A3F8E493A34003F68001F2C4
:100A500008DFF48029E493A3F85407240CC8C333B7
:100A6000C4540F4420C8834004F456800146F6DF86
:100A7000E4800B0102040810204080900CF6E47E14
:100A8000019360BCA3FF543F30E509541FFEE4937B
:100A9000A360010ECF54C025E060A840B8E493A342
:100AA000FAE493A3F8E493A3C8C582C8CAC583CA6D
:100AB000F0A3C8C582C8CAC583CADFE9DEE780BE25
:010D040000EE
:00000001FF
