:100800007508011208A3120829AF080508E50BFDB9
:100810007C0012085BAF0B12089B7FE8120871E5A1
:0908200008B408E575080180E048
:030023000208923E
:0908920030980585990BC29832DB
:10084400E4FEEF3392B4D2B6C2B6EF25E0FF0EBE9B
:0608540008F0D2B5C2B5A8
:01085A00227B
:0508A300C2B5C2B6223F
:10085B00EF14FF7480A807088002C313D8FCF4F5CB
:06086B0080AF0502084405
:06087100AE071FEE600E51
:0C087700750902750AEFD50AFDD509FAD3
:0308830080EC22E4
:1008290075985043878053890F438920758DF475D6
:0B0839008BF4D28EC2ABD2ACD2AF2247
:08089B008F993099FDC29922EA
:030000000208866D
:0C088600787FE4F6D8FD75810B020800B5
:00000001FF
