:1012A9008F3B8C3C8D3D1213B77FA0121233121362
:1012B90098AF3B121233121398AF3D121233121327
:0412C900980213C0B4
:0211D4008F2E5C
:1011D6001213B77FA0121233121398AF2E121233C6
:1011E6001213981213B77FA1121233121398121208
:0D11F600CD8F2F7F011213A41213C0AF2F55
:0112030022C8
:06000E00AE071FEE600EBC
:0C001400753F027540EFD540FDD53FFA66
:0300200080EC224F
:0813AE007F247ED9DEFEDFFC86
:0113B6002214
:0413E2007F0BDFFEA0
:0113E60022E4
:0513D000007F14DFFEA8
:0113D50022F5
:0513D600007F0FDFFEA7
:0113DB0022EF
:0D137E00007F087E017DF3DDFEDEFCDFFA5E
:01138B00223F
:101204004E6F7748756D3A004E6F77546D703A00A3
:101214002573256400B5B1C7B0CAAAB6C8CEAA0062
:0F122400000000000000000000000000000000BB
:0C138C00D2A3C2A31213AED2A30213E23C
:10116B00E4FFFE30A30B000EEED3946440F57F65D5
:10117B0022A2A3E433FFE4FE20A30B000EEED394D4
:10118B003240F57F6622E4FE30A30B000EEED394C3
:06119B003240F57F6722DF
:0111A100222B
:0A0F9000AB22AA23A924EF120826C1
:100F9A00E4F526F527F528F528E4F52720A30D0022
:100FAA000527E527D3943240F37F68221213D630FF
:100FBA00A30FAF287480A807088002C313D8FC4285
:100FCA0026E4F52730A30D000527E527D394324000
:0F0FDA00F37F69220528E528C3940840BCAF26A1
:010FE90022E5
:060DD4008B228A23892412
:100DDA00E4F52512138C12116BEF706F120F9AAB98
:100DEA0022AA23A924EF120814120F9A90000112C2
:100DFA000F90900002120F90AB22AA23A924900010
:100E0A0003120F96AB22AA23A924900004EF12081A
:100E1A00269000011207C5FF1207AC2FFFE433FE2C
:100E2A009000021207C57C002FFFEC3EFE900003E3
:100E3A001207C52FFFEC3EFE9000041207C5B50746
:0D0E4A0007ECB506037F00227F6A227F6B54
:010E57002278
:101131007BFF7A1279047F801210FC7BFF7A12798F
:101141000C7FC01210FC7B007A00790E120DD4EFD7
:101151007017AB0E7D087F011210BDAB107D087FAB
:0A116100021210BD7FF412000E22EE
:10107B008B228A2389241207ACFEE50ED39E4013E4
:10108B00AB25AA26A9271207ACFFE510D39F400377
:10109B007F0922E50ED39E5010AB25AA26A9271255
:0F10AB0007ACFFE510D39F40037F02227F002296
:1011A2008B228A2389241207ACFFE50EC39F4010CD
:1011B200AB25AA26A9271207ACFEE510C39E500351
:1011C200C2A222E50ED39F4008E510D39E4002D270
:0211D200A22257
:100C32001207ACD39463400574631208141207AC14
:100C4200D3943250057432120814AB31AA32A9334C
:100C52001207ACC3940F5005740F120814AB31AADB
:100C620032A9331207ACD3943240057432120814FD
:100C7200AB34AA35A9361207ACD3942840057428A0
:100C8200120814AB34AA35A9361207ACD394195002
:100C9200057419120814AB37AA38A9391207ACC364
:100CA200940550057405120814AB37AA38A93912F5
:0D0CB20007ACD394194005741912081422E0
:100F2A008B228A2389247F011211D4AB22AA23A9F6
:100F3A0024EF1208147F021211D4AB25AA26A9277E
:100F4A00EF1208147F031211D4AB28AA29A92AEF99
:100F5A001208147F041211D4AB2BAA2CA92DEF125C
:100F6A000814852531852632852733852834852935
:100F7A0035852A36852B37852C38852D39AB22AA1B
:060F8A0023A924020C3231
:10103A0078227C007D007BFF7A1279247E007F0F64
:10104A001207647534FF7535127536147537FF75D6
:10105A003812753919850E3A7B007A007922120006
:10106A00827B007A007922E4FF120D4B7F10020086
:01107A000E67
:0913B700D2A1D2A0C2A0C2A12261
:0913C000C2A1C2A0D2A1D2A02258
:02123300AD0705
:10123500E4FB74807E00A803088006CEA2E713CEE7
:1012450013D8F8FFEDF582EF558224FF92A0D2A1C5
:06125500C2A10BBB08DC86
:01125B002270
:1012CD00E4FFD2A0FE30A00D7480A806088002C3F2
:0D12DD0013D8FC4207D2A1C2A10EBE08E842
:0112EA0022E1
:0A13A400EF24FF92A0D2A1C2A12203
:0B139800D2A0A2A0E433FFD2A1C2A1AA
:0113A3002227
:100B8B004F6E65746F7563685365743A20005B76BE
:100B9B00355D5B74355DD2BBBCFCC9E8D6C3C4A361
:100BAB00CABD002020202020202020202020200033
:100BBB00546F616D61746F21005B76355D5B7435CD
:100BCB005DC9E8D6C3B7ACC7D1B3C9B9A6004567F1
:100BDB0067706C616E7421005B76355D5B74355D9F
:100BEB00C9E8D6C3C7D1D7D3B3C9B9A6004361727D
:100BFB00726F7421005B76355D5B74355DC9E8D629
:100C0B00C3BAFAC2DCB2B7B3C9B9A6004C65656BFF
:100C1B0021005B76355D5B74355DC9E8D6C3C7DBF8
:070C2B00B2CBB3C9B9A6006A
:101304007590F07F0A12000EE59054F0FF75900F6F
:06131400E590540F2FFFCD
:01131A0022B0
:10087E008B2E8A2F8930121304BF771EAB2EAA2F10
:10088E00A93074011207F21207ACFD7C007F011231
:10089E0012A9121304EF647760F8121304BF7B1EC3
:1008AE00AB2EAA2FA93074FF1207F21207ACFD7CF3
:1008BE00007F011212A9121304EF647B60F8121369
:1008CE0004BF7D1EAB31AA32A93374011207F21296
:1008DE0007ACFD7C007F021212A9121304EF647D97
:1008EE0060F8121304BF7E1EAB31AA32A93374FF17
:1008FE001207F21207ACFD7C007F021212A912132E
:10090E0004EF647E60F8121304BFB71EAB34AA3531
:10091E00A93674011207F21207ACFD7C007F031298
:10092E0012A9121304EF64B760F8121304BFBB1EB2
:10093E00AB34AA35A93674FF1207F21207ACFD7C50
:10094E00007F031212A9121304EF64BB60F8121396
:10095E0004BFBD1EAB37AA38A93974011207F212B3
:10096E0007ACFD7C007F041212A9121304EF64BDC4
:10097E0060F8121304BFBE1EAB37AA38A93974FF34
:10098E001207F21207ACFD7C007F041212A912139B
:07099E0004EF64BE60F822C3
:060382008B2E8A2F89304A
:100388007F0112135A7F6412000E753A0FE53A2462
:1003980080FF7BFF7A0B798B1210FC7F2C12000EEA
:1003A800153AC3E53A6480948050E27BFF7A0B7972
:1003B8009902067D121304EF64EE700302068A1296
:1003C8001304EF64D760030204777BFF7A0B79AEDE
:1003D8007FC01210FC7BFF7A0B79BB7FC01210FC28
:1003E800AB2EAA2FA930743C120814AB2EAA2FA941
:1003F800301207ACFD7C007F011212A97F14120095
:100408000EAB31AA32A933741E120814AB31AA32CA
:10041800A9331207ACFD7C007F021212A97F1412C7
:10042800000EAB34AA35A936741E120814AB34AAD0
:1004380035A9361207ACFD7C007F031212A97F1480
:1004480012000EAB37AA38A9397419120814AB3741
:10045800AA38A9391207ACFD7C007F041212A97BC7
:10046800FF7A0B79C4E4FF120D4B7F8812000E123D
:100478001304EF64DB60030205277BFF7A0B79AE78
:100488007FC01210FC7BFF7A0B79D97FC01210FC59
:10049800AB2EAA2FA9307428120814AB2EAA2FA9A4
:1004A800301207ACFD7C007F011212A97F141200E4
:1004B8000EAB31AA32A933741E120814AB31AA321A
:1004C800A9331207ACFD7C007F021212A97F141217
:1004D800000EAB34AA35A936741E120814AB34AA20
:1004E80035A9361207ACFD7C007F031212A97F14D0
:1004F80012000EAB37AA38A939740F120814AB379B
:10050800AA38A9391207ACFD7C007F041212A97B16
:10051800FF7A0B79E3E4FF120D4B7F8812000E126D
:100528001304EF64DD60030205D77BFF7A0B79AE15
:100538007FC01210FC7BFF7A0B79F87FC01210FC89
:10054800AB2EAA2FA9307432120814AB2EAA2FA9E9
:10055800301207ACFD7C007F011212A97F14120033
:100568000EAB31AA32A9337423120814AB31AA3264
:10057800A9331207ACFD7C007F021212A97F141266
:10058800000EAB34AA35A936741E120814AB34AA6F
:1005980035A9361207ACFD7C007F031212A97F141F
:1005A80012000EAB37AA38A939740D120814AB37EC
:1005B800AA38A9391207ACFD7C007F041212A97B66
:1005C800FF7A0C7900E4FF120D4B7F8812000E129F
:1005D8001304EF64DE60030203BC7BFF7A0B79AE81
:1005E8007FC01210FC7BFF7A0C79177FC01210FCB9
:1005F800AB2EAA2FA9307446120814AB2EAA2FA925
:10060800301207ACFD7C007F011212A97F14120082
:100618000EAB31AA32A9337428120814AB31AA32AE
:10062800A9331207ACFD7C007F021212A97F1412B5
:10063800000EAB34AA35A9367419120814AB34AAC3
:1006480035A9361207ACFD7C007F031212A97F146E
:1006580012000EAB37AA38A9397414120814AB3734
:10066800AA38A9391207ACFD7C007F041212A97BB5
:10067800FF7A0C791DE4FF120D4B7F8812000E02E1
:0C06880003BC7F0112135A7F6402000EB5
:100FEA0057656C636F6D6520746F2075736521009A
:100FFA00506C6561736520736574212020202D3E35
:10100A00005B76355D5B74355DBBB6C7EBCAB9D399
:10101A00C3C7EBC9E8D6C3C9CFCFC2CFDE00687554
:10102A006D3A00746D703A004D4158004D494E00BA
:10135A00C2A6C2A5C2A78F80D2A700C2A77F0102D8
:02136A00000E73
:10136C00D2A6C2A5C2A78F80D2A700C2A77F0102B6
:02137C00000E61
:1012EB007F0112135A7F0612135A7F0C12135A7F67
:0912FB003812135A7F0102000EA3
:0610F6007BFF7A10793245
:1010FC008F3B8B3C8A3D893EAB3CAA3DA93E1207F7
:10110C00AC6021AF3B053B12135AAB3CAA3DA93E48
:10111C001207ACFF12136C7401253EF53EE4353D0D
:05112C00F53D80D42216
:0310BA00FB7F01B8
:1010BD008F2E8D2F8B30E52EB40106E52F247F80EA
:1010CD0009E52EB40222E52F24BFFF12135AE53095
:1010DD0075F00A842430FF12136CE53075F00A8424
:0910ED00E5F02430FF12136C221F
:100EC30075220FE5222480FF7BFF7A0F79EA121047
:100ED300FC7F2C12000E1522C3E5226480948050FF
:100EE300E275220FE52224C0FF7BFF7A0F79FA1205
:100EF30010FC7F2C12000E1522C3E522648094801F
:100F030050E27BFF7A10790BE4FF120D4B7F101236
:100F1300000E121304BFEEFA7F6412000E7F01125B
:070F2300135A7F6402000E67
:1009A5008B228A2389247F0112135A121304EF64C0
:1009B500EE7003020AA4121304BFE72485253185CE
:1009C5002632852733852834852935852A36852B92
:1009D50037852C38852D39AB22AA23A92412038209
:1009E5008525318526328527338528348529358522
:1009F5002A36852B37852C38852D39AB22AA23A994
:100A05002412087E852531852632852733852834AD
:100A1500852935852A36852B37852C38852D39ABA3
:100A250022AA23A924120C327BFF7A1079287F8011
:100A35001210FC7BFF7A10792D7FC01210FC7F8588
:100A45001210F6AB22AA23A9241207AC7D091210B5
:100A5500BA7BFF7A1079367F8B1210FCAB25AA265C
:100A6500A9271207AC7D0F1210BA7FC51210F6AB7D
:100A750028AA29A92A1207ACFB7D097F021210BDFD
:100A85007BFF7A1079367FCB1210FCAB2BAA2CA9F1
:100A95002D1207ACFB7D0F7F021210BD0209B07F3E
:090AA5000112135A7FE802000E51
:0613C900010800010D0007
:100AAE007FDC12000E1212EB12131B12133075257F
:100ABE000075260075270A752800752900752A0B02
:100ACE00752B00752C00752D0C7B007A00790912A0
:100ADE000F2A120EC375250075260075270A752874
:100AEE0000752900752A0B752B00752C00752D0CC1
:100AFE007B007A0079091209A57525007526007507
:100B0E00270B7B007A00790912107B8F0DC2901291
:100B1E001131121304BFEE0512103A80F5121304B0
:100B2E00BF772C121304EF647760F87525007526D5
:100B3E000075270A752800752900752A0B752B007C
:100B4E00752C00752D0C7B007A0079091209A5759C
:100B5E00250075260075270B7B007A007909121087
:100B6E007B8F0D75250075260075270C7B007A008E
:0D0B7E00790A1211A2E50D7096C2908092C6
:03000B00020E588A
:100E5800C0E0C0F0C083C082C0D075D000C000C060
:100E680001C002C003C004C005C006C007C3E50D29
:100E78006480F8E5086480985004D290800FC3E538
:100E88000D6480F8E5086480984002C2900508E582
:100E98000875F00A12078A85F008758CD8758AEFEC
:100EA800D007D006D005D004D003D002D001D0009E
:0B0EB800D0D0D082D083D0F0D0E03248
:030023000213DCE9
:0613DC00309802C29832B5
:10131B005389F0438901C28DD28C758CD8758AEFB5
:05132B00D2A9D2AF229F
:10133000759850438920758BFD758DFDC2ABD28E9B
:05134000D2ACD2AF2287
:080003008F993099FDC299228A
:061283008B738A7489756B
:10128900E4FEEEC39D5018AB730575E575AA74703D
:0F12990002057414F91207ACFF1200030E80E374
:0112A8002223
:080D4B008F3B8B3C8A3D893E81
:100D5300E4F572FFFE1213458F71753FFDE4F54014
:100D6300E5712403F541754201E53BC454F04401A8
:100D7300F543E4FEFF743F2FF8E662720FBF0001F4
:100D83000EEF64054E70EEE4FEFFC3EF9571EE9433
:100D9300005016AB3CAA3DA93E8F828E831207C535
:100DA30062720FBF00010E80E1AF717E0078447C58
:100DB300007D00AB3CAA3DA93E1207647444257133
:100DC300F8A6727B007A00793FE5712406FD0212D2
:010DD300839C
:03000000020CBF30
:0C0CBF00787FE4F6D8FD758175020D0603
:10069400E709F608DFFA8046E709F208DFFA803E48
:1006A40088828C83E709F0A3DFFA8032E309F60835
:1006B400DFFA8078E309F208DFFA807088828C839D
:1006C400E309F0A3DFFA806489828A83E0A3F60851
:1006D400DFFA805889828A83E0A3F208DFFA804C2B
:1006E40080D280FA80C680D4806980F28033801002
:1006F40080A680EA809A80A880DA80E280CA80336B
:1007040089828A83ECFAE493A3C8C582C8CCC583E2
:10071400CCF0A3C8C582C8CCC583CCDFE9DEE780B2
:100724000D89828A83E493A3F608DFF9ECFAA9F031
:10073400EDFB2289828A83ECFAE0A3C8C582C8CC87
:10074400C583CCF0A3C8C582C8CCC583CCDFEADEA0
:10075400E880DB89828A83E493A3F208DFF980CC02
:1007640088F0EF60010E4E60C388F0ED2402B404FB
:100774000050B9F582EB2402B4040050AF232345A2
:0607840082239006E473DD
:10078A00C2D530F707B2D563F0FF05F030E70CB2F7
:10079A00D5F4048463F0FF05F080018430D502F4B7
:0207AA00042227
:1007AC00BB010689828A83E0225002E722BBFE024B
:0907BC00E32289828A83E493227E
:1007C500BB010CE58229F582E5833AF583E02250E9
:1007D50006E92582F8E622BBFE06E92582F8E22233
:0D07E500E58229F582E5833AF583E493224D
:1007F200BB010989828A83F8E028F022500327F797
:1008020022BBFE05F8E328F3228A838982F8E49367
:0208120028229A
:10081400BB010689828A83F0225002F722BBFE01C3
:02082400F322BD
:10082600F8BB010DE58229F582E5833AF583E8F008
:10083600225006E92582C8F622BBFE05E92582C8B4
:02084600F2229C
:10002600E5402434F8E6054022783130070278347A
:10003600E475F0011208480207AC2000EB7F2ED2CF
:10004600008018EF540F2490D43440D4FF30040BB2
:10005600EF24BFB41A0050032461FFE54160021586
:10006600410544E5447002054330070D7831E475D7
:10007600F001120848EF02081402125C7403D2075A
:100086008003E4C207F5408B318A328933E4F541B7
:10009600F543F544E54160077F2012006180F57560
:1000A60042FFC201C200C202C203C205C206C208A2
:1000B60012002FFF700D3007057F00120072AF444B
:1000C600AE4322B4255FC2D5C20412002FFF24D04E
:1000D600B40A00501A75F00A784130D50508B6FF03
:1000E6000106C6A426F620D5047002D20380D924C0
:1000F600CFB41A00EF5004C2E5D204020272D20154
:1001060080C6D20080C0D20280BCD2D580BAD205C9
:1001160080B47F201200612002077401B5410040BF
:10012600F1120026FF12006102009AD208D2068060
:1001360095120026FB120026FA120026F94A4B7089
:100146000679437A037BFF20022EE541602A7E0072
:100156008E827583001207C560060EEE654270F04A
:10016600C2D5EBC0E0EAC0E0E9C0E0EE1202B9D0C9
:10017600E0F9D0E0FAD0E0FB1207ACFF60AAEBC0D2
:10018600E0EAC0E0E9C0E0120061D0E02401F9D065
:10019600E03400FAD0E0FBE5420460DCD542D980C9
:1001A600877BFF7A0279B5D202809C79108002792A
:1001B60008C206C2088008D2D5790A8004790AC224
:1001C600D5E542047002F542E4FAFDFEFF12002670
:1001D600FC7B08200113120026FD7B1030000A125A
:1001E6000026FE120026FF7B20EC3382D592D550E6
:1001F60013C3E43000069FFFE49EFEE42001039D46
:10020600FDE49CFCE4CBF8C201EC700CCFCECDCC67
:10021600E824F8F870F38017C3EF33FFEE33FEEDF2
:1002260033FDEC33FCEB33FB994002FB0FD8E9EBD3
:10023600300105F8D0E0C448B201C0E00AEC4D4EEA
:100246004F78207B0070C2EAB5420040BCC0E01285
:1002560002BBD0F0D0E0200104C4C0E0C4B201C0AB
:10026600F012004AD0F0D5F0EB02009A12085801BD
:10027600375301B15801084C01044201B54F01BD85
:0F0286004401BD49011D4301C35501A74601A70E
:100295004501A747036350010C2D01102E01332B97
:1002A500011423013120034C2A00CC480000012B06
:1002B5003F3F3F00790AA2D5200314300509B91044
:1002C500020404B9080104A2D52006025001042045
:1002D50002689202B541005034C0E07F2030031916
:1002E5007F30A20272067205500F120312C202C2BB
:1002F50006C205C2087F30800F300503E9C0E01251
:100305000061300503D0E0F9D0E0B541CC300517E8
:100315007F30B9100C1200617F583004077F788058
:1003250003B908031200613002057F2D0200617FC9
:10033500202008F87F2B2006F322920280CF286E1A
:10034500756C6C2900D2011200263001F8C20178C3
:100355004130D50108F60200CC2D50434958120012
:10036500262403B405004001E490035E9312005275
:0D037500743A120052D2037541040201B126
:10134500E4FFFE1207AC600C0FEF70010E09E970A7
:05135500F20A80EF2206
:100CCB00020AAEE493A3F8E493A34003F68001F287
:100CDB0008DFF48029E493A3F85407240CC8C3332A
:100CEB00C4540F4420C8834004F456800146F6DFF9
:100CFB00E4800B01020408102040809013C9E47EAD
:100D0B00019360BCA3FF543F30E509541FFEE493ED
:100D1B00A360010ECF54C025E060A840B8E493A3B4
:100D2B00FAE493A3F8E493A3C8C582C8CAC583CADF
:100D3B00F0A3C8C582C8CAC583CADFE9DEE780BE97
:0113CF00001D
:10084800FAE6FB0808E6F925F0F618E6CA3AF622B1
:10085800D083D082F8E4937012740193700DA3A32F
:1008680093F8740193F5828883E473740293686043
:06087800EFA3A3A380DF43
:10125C00EFB40A07740D121267740A309811A8992A
:10126C00B8130CC2983098FDA899C298B811F630F2
:07127C0099FDC299F59922CA
:00000001FF
