:100E15002E004869676821004C6F7721002020204B
:030E25002020008A
:100BD30075081A750915120DBA120E3A120CF51290
:100BE3000A5DAB077D017F02120C857BFF7A0E79CC
:100BF300157FC3120CC0120CF57B007A40791C7868
:100C030046120800120A5DE47B107A27F9F8120BEA
:100C1300337D057F02120C85120CF5C004C005C09C
:100C230006C007AC08E4120A29A804A905AA06AB62
:100C330007D007D006D005D0041209A650087BFFC1
:100C43007A0E79178034120CF5C004C005C006C0B3
:100C530007AC09E4120A29A804A905AA06AB07D020
:100C630007D006D005D0041209A67BFF6008400612
:100C73007A0E791D80047A0E79227F80120CC002CD
:020C83000BDC88
:100D8700E4FFD2B7C2B77EE5DEFED2B77E1DDEFE38
:090D9700A2B7E433FF7EE5DEFEA5
:010DA0002230
:100DEB00D2B7C2B7EF60077E03DEFED2B7227E1DFD
:040DFB00DEFED2B78F
:010DFF0022D1
:100DD300C2B77F02DFFE7F02DFFED2B7A2B7E433E2
:070DE300FE7F16DFFEAF06E4
:010DEA0022E6
:020DA100AD079C
:100DA300E4FC7401A804088002C333D8FC5DFF127D
:060DB3000DEB0CBC08EC86
:010DB9002217
:100D2A00E4F50C120D6CAF0C120E53E4FD120DD348
:100D3A00EF600D7401A805088002C333D8FC420C89
:060D4A000DBD08E9AF0C2D
:010D50002280
:100E2800C2A6C2A5C2A78F80D2A700C2A77F01020F
:020E38000E00AA
:090D510075F00A84E5F02430FF7E
:100D5A00D2A6C2A5C2A78F80D2A700C2A77F0102CE
:020D6A000E0079
:100DBA007F01120E287F06120E287F0C120E287F42
:090DCA0038120E287F01020E0010
:100CC0008F0A8B0B8A0C890DAB0BAA0CA90D120A8B
:100CD000DE6021AF0A050A120E28AB0BAA0CA90D83
:100CE000120ADEFF120D5A7401250DF50DE4350CC4
:050CF000F50C80D42288
:100C85008F0A8D0B8B0CE50A64017006E50B247F3A
:100C9500800AE50A64027022E50B24BFFF120E28C4
:100CA500E50C75F064842430FF120D5AE50C75F0DF
:0B0CB5000A84120D51E50C120D5122B3
:060E0000AE071FEE600EBC
:0C0E0600750E02750FEFD50FFDD50EFA2A
:030E120080EC224F
:0D0E3A00120D877FCC120DA17F44020DA187
:100CF500120D877FCC120DA17FBE120DA1120D2AF8
:100D0500750A008F0B120D2AEF7F00FEEF250BFFF2
:100D1500E50A3EFEAD07FC120A24E4FBFA79807869
:040D25004112090965
:010D290022A7
:100D6C0075985043878053890F438920D28E758D97
:0B0D7C00F4758BF4C2ABD2ACD2AF22F6
:080E53008F993099FDC299222C
:10080000EC4D6011E8497017ED33EC3304600DE4F2
:10081000FCFFFEFD22E933E8330470F8020AC91236
:100820000A9458046009E4CC248150062850090237
:100830000AD3284003020AD0C0E0EB4A7044B980D2
:1008400006D0E0FB020ABFEF4E701CBD8008EBFF34
:10085000EAFEE9FD80EBE98DF0A4FEE5F00208E98F
:10086000E9CDF9EAFEEBFFEF89F0A4FCE5F0CE89D3
:10087000F0A42EFFE435F0CD89F0A42DFEE435F090
:100880008067EF4E7005BD80D780C3EF8BF0A4ACBE
:10089000F0EE8BF0A42CFCE435F0F8EF8AF0A42CF9
:1008A000E5F038FCE433CB8DF0A42CFCE5F03BF80C
:1008B000EE8AF0A42CFCE5F038F8E433CF89F0A4FC
:1008C0002CFCE5F038CF3400CE89F0A42FFFE5F002
:1008D0003EFEE433C98DF0A42EFEE5F039CD8AF05A
:1008E000A42FFFE5F03EFEE43DFD33D0E0FB5007D2
:1008F0000BBB000F020AD3EC2CFCEF33FFEE33FEF0
:06090000ED33FD020AAB1D
:10090600020AD3EC5D046005E859047003020AC9C3
:10091600120A94580460F6EC4860F2EC7004FDFE8E
:10092600FF22C860DB2481C85009C39860025006C4
:10093600020AD09850CAF582E9294B4A7005AB8263
:10094600020ABF75F0007C1A7880C3EF9BEE9AED21
:1009560099400DC3EF9BFFEE9AFEED99FDE842F03C
:10096600DC23ACF0D0E0FFD0E0FED0E0FDAB82208F
:10097600E7101BEB60BAEC2CFCEF33FFEE33FEED19
:1009860033FD020AABE803F830E705C0F075F00066
:10099600EF2FFFEE33FEED33FD40B830E7C280AAFD
:1009A60074F8CC6480CCC86480C8F58204604FC3F8
:1009B600EB9FF5F0EA9E42F0E99D42F0E89C45F097
:1009C600603C501DE5825FFFE582D313CB5BCBF421
:1009D6002B5582FB50280ABA002409B9002008804A
:1009E6001DE5825BFBE582D313CF5FCFF4C3132FE4
:1009F6005582FF50090EBE00050DBD00010CC3EB6C
:100A06009FF5F0EA9E42F0E99D42F0E89C45F060D1
:090A160007CC4820E701B3EC22F3
:100A1F0075F020800E75F010800575F0087D007E52
:100A2F00007F003392D530D503120BC5EC33401045
:100A3F00EF33FFEE33FEED33FDEC33FCD5F0ED225B
:0E0A4F00E5F0247EA2D513CC92E7CDCEFF2297
:100A5D00EDD2E7CD33EC3392D524814006E4FFFE91
:100A6D00FDFC22FCE4CFCECDCC24E0501174FF80F0
:100A7D00EDC3CC13CCCD13CDCE13CECF13CF04708D
:070A8D00F030D5DE020BC5BD
:100A9400E9D2E7C933E833F892D5EDD2E7CD33ECA8
:070AA40033FC5002B2D52221
:100AAB00EC30E7100FBF000C0EBE00080DBD0004AC
:100ABB000BEB6014A2D5EB13FCED92E7FD2274FF58
:100ACB00FCFDFEFF22E480F8A2D574FF13FC7D80B1
:030ADB00E480EFC5
:03000000020E47A6
:0C0E4700787FE4F6D8FD75810F020BD314
:100ADE00BB010689828A83E0225002E722BBFE0216
:090AEE00E32289828A83E4932249
:100AF70075F008758200EF2FFFEE33FECD33CDCCB6
:100B070033CCC58233C5829BED9AEC99E582984038
:100B17000CF582EE9BFEED9AFDEC99FC0FD5F0D615
:100B2700E4CEFBE4CDFAE4CCF9A88222B800C1B93F
:100B37000059BA002DEC8BF084CFCECDFCE5F0CB7D
:100B4700F97818EF2FFFEE33FEED33FDEC33FCEBB6
:100B570033FB10D703994004EB99FB0FD8E5E4F971
:100B6700FA227818EF2FFFEE33FEED33FDEC33FC5E
:100B7700C933C910D7059BE99A4007EC9BFCE99A52
:100B8700F90FD8E0E4C9FAE4CCFB2275F010EF2F97
:100B9700FFEE33FEED33FDCC33CCC833C810D70797
:100BA7009BEC9AE899400AED9BFDEC9AFCE899F8D2
:0E0BB7000FD5F0DAE4CDFBE4CCFAE4C8F92265
:0E0BC500C3E49FFFE49EFEE49DFDE49CFC2241
:00000001FF
