:0A0A6200746D703A0068756D3A007B
:10087F001209F87BFF7A0A79627F801209987BFF51
:10088F007A0A79677FC0120998750B00750C00758D
:10089F000D1E750E00750F0075101F751100751266
:1008AF000075131C7B007A00791D120800AB1D7DAB
:1008BF00057F0112095FAB1F7D057F0212095F7F64
:0608CF00E8120A1180C3CB
:060A1100AE071FEE600EAF
:0C0A1700750C02750DEFD50DFDD50CFA25
:030A230080EC2242
:080A6C007F247ED9DEFEDFFCD1
:010A7400225F
:040A81007F0BDFFE0A
:010A8500224E
:050A7500007F14DFFE0C
:010A7A002259
:050A7B00007F0FDFFE0B
:010A80002253
:0C0A4A00D2A3C2A3120A6CD2A3020A813C
:10092500E4FF7E0130A30B0F00EFD3946440F57F05
:100935006522E4FF20A310A2A3E433FE0F00EFD34A
:10094500946440F07F6622E4FF30A30B0F00EFD3E1
:09095500946440F57F6722AF06AF
:01095E002276
:1008D500E4F519F51AF51BF519E4F51A20A30D052C
:1008E5001A00E51AD3946440F37FC922120A7B30BB
:1008F500A322AF197480A807088002C313D8FC424D
:100905001BE4F51A30A30D051A00E51AD3946440CB
:0F091500F37FCA220519E519C3940840BCAF1B34
:0109240022B0
:060800008B088A09890A39
:10080600120A4A120925EF706A1208D58F141208C7
:10081600D58F151208D58F161208D58F171208D541
:100826008F18120A7BE5142515FFE433FE7C00EFD2
:100836002516FFEC3EFEEF2517FFEC3EFEEFB51842
:1008460035ECB50631AB08AA09A90AE5161209E680
:10085600AB0BAA0CA90DE5171209E6AB0EAA0FA958
:1008660010E5141209E6AB11AA12A913E51512092F
:08087600E680037F2E227F00C3
:01087E002257
:100A2600C2A6C2A5C2A78F80D2A700C2A77F010215
:020A36000A11A3
:100A3800D2A6C2A5C2A78F80D2A700C2A77F0102F3
:020A48000A1191
:1009F8007F01120A267F06120A267F0C120A267F1A
:090A080038120A267F01020A11CE
:100998008F088B098A0A890BAB09AA0AA90B1209C5
:1009A800CD6021AF080508120A26AB09AA0AA90BCF
:1009B8001209CDFF120A387401250BF50BE4350A2C
:0509C800F50A80D422B5
:10095F008F088D098B0AE508B40106E509247F800D
:10096F0009E508B40222E50924BFFF120A26E50AA9
:10097F0075F00A842430FF120A38E50A75F00A84EC
:09098F00E5F02430FF120A3822C1
:03000000020A569B
:0C0A5600787FE4F6D8FD75811F02087F50
:1009CD00BB010689828A83E0225002E722BBFE0228
:0909DD00E32289828A83E493225B
:1009E600BB010689828A83F0225002F722BBFE01F0
:0209F600F322EA
:00000001FF
