:101395008F3B8C3C8D3D1214A37FA012131F12149A
:1013A50084AF3B12131F121484AF3D12131F121486
:0413B500840214ACEE
:0212EF008F2E40
:1012F1001214A37FA012131F121484AF2E12131FF6
:101301001214841214A37FA112131F121484121336
:0D131100B98F2F7F011214901214ACAF2F72
:01131E0022AC
:06000E00AE071FEE600EBC
:0C001400753F027540EFD540FDD53FFA66
:0300200080EC224F
:08149A007F247ED9DEFEDFFC99
:0114A2002227
:0414CE007F0BDFFEB3
:0114D20022F7
:0514BC00007F14DFFEBB
:0114C1002208
:0514C200007F0FDFFEBA
:0114C7002202
:0D146A00007F087E017DF3DDFEDEFCDFFA71
:011477002252
:101128004E6F7748756D3A004E6F77546D703A0080
:101138002573256400B5B1C7B0CAAAB6C800B5B151
:10114800C7B0CEC2B6C80000000000000000000012
:101158000000000000000000000000000000000087
:0F11680000000000000000000000000000000078
:0C147800D2A3C2A312149AD2A30214CE75
:1012B800E4FFFE30A30B000EEED3946440F57F6587
:1012C80022A2A3E433FFE4FE20A30B000EEED39486
:1012D8003240F57F6622E4FE30A30B000EEED39475
:0612E8003240F57F672291
:0112EE0022DD
:0A107E00AB22AA23A924EF120826D2
:10108800E4F526F527F528F528E4F52720A30D0033
:101098000527E527D3943240F37F68221214C23023
:1010A800A30FAF287480A807088002C313D8FC4296
:1010B80026E4F52730A30D000527E527D394324011
:0F10C800F37F69220528E528C3940840BCAF26B2
:0110D70022F6
:060DDF008B228A23892407
:100DE500E4F5251214781212B8EF706F121088AB63
:100DF50022AA23A924EF12081412108890000112C8
:100E0500107E90000212107EAB22AA23A924900026
:100E150003121084AB22AA23A924900004EF120820
:100E2500269000011207C5FF1207AC2FFFE433FE21
:100E35009000021207C57C002FFFEC3EFE900003D8
:100E45001207C52FFFEC3EFE9000041207C5B5073B
:0D0E550007ECB506037F00227F6A227F6B49
:010E6200226D
:10127E007BFF7A1179287F801212497BFF7A1179D0
:10128E00307FC01212497B007A00790E120DDFEF0B
:10129E007017AB0E7D087F0112120AAB107D087F0E
:0A12AE000212120A7FF412000E2251
:100E63008B228A2389241207ACFFAD0EED3395E064
:100E7300FCD3ED9F7480F86C98401DAB25AA26A97E
:100E8300271207ACFFAD10ED3395E0FCD3ED9F7453
:100E9300806C9840037F0922AB22AA23A92412075E
:100EA300ACFFAD0EED3395E0FCD3ED9F7480F86C91
:100EB30098501AAB25AA26A9271207ACFFAD10ED4F
:100EC3003395E0FCD3ED9F74806C9840037F02223E
:030ED3007F00227B
:100ED6008B228A2389241207ACFFAD0EED3395E0F1
:100EE600FCC3ED9F7480F86C98401AAB25AA26A91E
:100EF600271207ACFFAD10ED3395E0FCC3ED9F74F0
:100F0600806C985003C2A222AB22AA23A9241207FE
:100F1600ACFFAD0EED3395E0FCD3ED9F7480F86C1D
:100F260098401CAB25AA26A9271207ACFFAD10EDE9
:100F36003395E0FCD3ED9F74806C984002D2A222D8
:100C3D001207ACD39463400574631208141207AC09
:100C4D00D3943250057432120814AB31AA32A93341
:100C5D001207ACC3940F5005740F120814AB31AAD0
:100C6D0032A9331207ACD3943240057432120814F2
:100C7D00AB34AA35A9361207ACD394284005742895
:100C8D00120814AB34AA35A9361207ACD3941950F7
:100C9D00057419120814AB37AA38A9391207ACC359
:100CAD00940550057405120814AB37AA38A93912EA
:0D0CBD0007ACD394194005741912081422D5
:101018008B228A2389247F011212EFAB22AA23A9EB
:1010280024EF1208147F021212EFAB25AA26A92773
:10103800EF1208147F031212EFAB28AA29A92AEF8E
:101048001208147F041212EFAB2BAA2CA92DEF1251
:101058000814852531852632852733852834852946
:1010680035852A36852B37852C38852D39AB22AA2C
:0610780023A924020C3D37
:1011770078227C007D007BFF7A11794F7E007F14F7
:10118700120764AF0EEF3395E07539FF753A1175A5
:101197003B38753CFF753D11753E3DF53F8F407BF4
:1011A700007A0079221200827B007A007922E4FF1C
:0811B700120D567F4002000EEC
:1011BF0078227C007D007BFF7A1179637E007F149B
:1011CF00120764AF10EF3395E07539FF753A11755B
:1011DF003B38753CFF753D11753E46F53F8F407BA3
:1011EF00007A0079221200827B007A007922E4FFD4
:0811FF00120D567F4002000EA4
:0914A300D2A1D2A0C2A0C2A12274
:0914AC00C2A1C2A0D2A1D2A0226B
:02131F00AD0718
:10132100E4FB74807E00A803088006CEA2E713CEFA
:1013310013D8F8FFEDF582EF558224FF92A0D2A1D8
:06134100C2A10BBB08DC99
:011347002283
:1013B900E4FFD2A0FE30A00D7480A806088002C305
:0D13C90013D8FC4207D2A1C2A10EBE08E855
:0113D60022F4
:0A149000EF24FF92A0D2A1C2A12216
:0B148400D2A0A2A0E433FFD2A1C2A1BD
:01148F00223A
:100B96004F6E65746F7563685365743A20005B76B3
:100BA600355D5B74355DD2BBBCFCC9E8D6C3C4A356
:100BB600CABD002020202020202020202020200028
:100BC600546F616D61746F21005B76355D5B7435C2
:100BD6005DC9E8D6C3B7ACC7D1B3C9B9A6004567E6
:100BE60067706C616E7421005B76355D5B74355D94
:100BF600C9E8D6C3C7D1D7D3B3C9B9A60043617272
:100C0600726F7421005B76355D5B74355DC9E8D61D
:100C1600C3BAFAC2DCB2B7B3C9B9A6004C65656BF4
:100C260021005B76355D5B74355DC9E8D6C3C7DBED
:070C3600B2CBB3C9B9A6005F
:1013F0007590F07F0A12000EE59054F0FF75900F83
:06140000E590540F2FFFE0
:0114060022C3
:10087E008B2E8A2F89301213F0BF771EAB2EAA2F24
:10088E00A93074011207F21207ACFD7C007F011231
:10089E0013951213F0EF647760F81213F0BF7B1EFE
:1008AE00AB2EAA2FA93074FF1207F21207ACFD7CF3
:1008BE00007F011213951213F0EF647B60F8121390
:1008CE00F0BF7D1EAB31AA32A93374011207F212AA
:1008DE0007ACFD7C007F021213951213F0EF647DBE
:1008EE0060F81213F0BF7E1EAB31AA32A93374FF2B
:1008FE001207F21207ACFD7C007F02121395121341
:10090E00F0EF647E60F81213F0BFB71EAB34AA3559
:10091E00A93674011207F21207ACFD7C007F031298
:10092E0013951213F0EF64B760F81213F0BFBB1EED
:10093E00AB34AA35A93674FF1207F21207ACFD7C50
:10094E00007F031213951213F0EF64BB60F81213BD
:10095E00F0BFBD1EAB37AA38A93974011207F212C7
:10096E0007ACFD7C007F041213951213F0EF64BDEB
:10097E0060F81213F0BFBE1EAB37AA38A93974FF48
:10098E001207F21207ACFD7C007F041213951213AE
:07099E00F0EF64BE60F822D7
:060382008B2E8A2F89304A
:100388007F011214467F6412000E753A0FE53A2475
:1003980080FF7BFF7A0B79961212497F2C12000E90
:1003A800153AC3E53A6480948050E27BFF7A0B7972
:1003B800A402067D1213F0EF64EE700302068A129F
:1003C80013F0EF64D760030204777BFF7A0B79B9E7
:1003D8007FC01212497BFF7A0B79C67FC01212497F
:1003E800AB2EAA2FA930743C120814AB2EAA2FA941
:1003F800301207ACFD7C007F011213957F141200A8
:100408000EAB31AA32A933741E120814AB31AA32CA
:10041800A9331207ACFD7C007F021213957F1412DA
:10042800000EAB34AA35A936741E120814AB34AAD0
:1004380035A9361207ACFD7C007F031213957F1493
:1004480012000EAB37AA38A9397419120814AB3741
:10045800AA38A9391207ACFD7C007F041213957BDA
:10046800FF7A0B79CFE4FF120D567F8812000E1227
:1004780013F0EF64DB60030205277BFF7A0B79B981
:100488007FC01212497BFF7A0B79E47FC0121249B0
:10049800AB2EAA2FA9307428120814AB2EAA2FA9A4
:1004A800301207ACFD7C007F011213957F141200F7
:1004B8000EAB31AA32A933741E120814AB31AA321A
:1004C800A9331207ACFD7C007F021213957F14122A
:1004D800000EAB34AA35A936741E120814AB34AA20
:1004E80035A9361207ACFD7C007F031213957F14E3
:1004F80012000EAB37AA38A939740F120814AB379B
:10050800AA38A9391207ACFD7C007F041213957B29
:10051800FF7A0B79EEE4FF120D567F8812000E1257
:1005280013F0EF64DD60030205D77BFF7A0B79B91E
:100538007FC01212497BFF7A0C79037FC0121249DF
:10054800AB2EAA2FA9307432120814AB2EAA2FA9E9
:10055800301207ACFD7C007F011213957F14120046
:100568000EAB31AA32A9337423120814AB31AA3264
:10057800A9331207ACFD7C007F021213957F141279
:10058800000EAB34AA35A936741E120814AB34AA6F
:1005980035A9361207ACFD7C007F031213957F1432
:1005A80012000EAB37AA38A939740D120814AB37EC
:1005B800AA38A9391207ACFD7C007F041213957B79
:1005C800FF7A0C790BE4FF120D567F8812000E1289
:1005D80013F0EF64DE60030203BC7BFF7A0B79B98A
:1005E8007FC01212497BFF7A0C79227FC012124910
:1005F800AB2EAA2FA9307446120814AB2EAA2FA925
:10060800301207ACFD7C007F011213957F14120095
:100618000EAB31AA32A9337428120814AB31AA32AE
:10062800A9331207ACFD7C007F021213957F1412C8
:10063800000EAB34AA35A9367419120814AB34AAC3
:1006480035A9361207ACFD7C007F031213957F1481
:1006580012000EAB37AA38A9397414120814AB3734
:10066800AA38A9391207ACFD7C007F041213957BC8
:10067800FF7A0C7928E4FF120D567F8812000E02CB
:0C06880003BC7F011214467F6402000EC8
:1010D80057656C636F6D6520746F207573652100AB
:1010E800506C6561736520736574212020202D3E46
:1010F800005B76355D5B74355DBBB6C7EBCAB9D3AB
:10110800C3C7EBC9E8D6C3C9CFCFC2CFDE00687565
:101118006D3A00746D703A004D4158004D494E00CB
:10144600C2A6C2A5C2A78F80D2A700C2A77F0102EB
:02145600000E86
:10145800D2A6C2A5C2A78F80D2A700C2A77F0102C9
:02146800000E74
:1013D7007F011214467F061214467F0C1214467FB3
:0913E700381214467F0102000EC9
:061243007BFF7A11792007
:101249008F3B8B3C8A3D893EAB3CAA3DA93E1207A8
:10125900AC6021AF3B053B121446AB3CAA3DA93E0D
:101269001207ACFF1214587401253EF53EE4353DD2
:05127900F53D80D422C8
:03120700FB7F0169
:10120A008F2E8D2F8B30E52EB40106E52F247F809B
:10121A0009E52EB40222E52F24BFFF121446E53059
:10122A0075F00A842430FF121458E53075F00A84E8
:09123A00E5F02430FF12145822E3
:100FB10075220FE5222480FF7BFF7A1079D8121267
:100FC100497F2C12000E1522C3E5226480948050C3
:100FD100E275220FE52224C0FF7BFF7A1079E81227
:100FE10012497F2C12000E1522C3E52264809480E1
:100FF10050E27BFF7A1079F9E4FF120D567F10124F
:10100100000E1213F0BFEEFA7F6412000E7F011280
:0710110014467F6402000E8B
:1009A5008B228A2389247F011214461213F0EF64E7
:1009B500EE7003020AA41213F0BFE72485253185E2
:1009C5002632852733852834852935852A36852B92
:1009D50037852C38852D39AB22AA23A92412038209
:1009E5008525318526328527338528348529358522
:1009F5002A36852B37852C38852D39AB22AA23A994
:100A05002412087E852531852632852733852834AD
:100A1500852935852A36852B37852C38852D39ABA3
:100A250022AA23A924120C3D7BFF7A1179167F8017
:100A35001212497BFF7A11791B7FC01212497F85FB
:100A4500121243AB22AA23A9241207AC7D09121264
:100A5500077BFF7A1179247F8B121249AB25AA26D1
:100A6500A9271207AC7D0F1212077FC5121243ABDF
:100A750028AA29A92A1207ACFB7D097F0212120AAE
:100A85007BFF7A1179247FCB121249AB2BAA2CA9B3
:100A95002D1207ACFB7D0F7F0212120A0209B07FEF
:090AA500011214467FE802000E64
:0614B500010800010D001A
:100AAE007FDC12000E1213D712140712141C7525B8
:100ABE000075260075270A752800752900752A0B02
:100ACE00752B00752C00752D0C7B007A00790912A0
:100ADE001018120FB175250075260075270A752896
:100AEE0000752900752A0B752B00752C00752D0CC1
:100AFE007B007A0079091209A57525007526007507
:100B0E00270B7B007A007909120E638F0DC29012AB
:100B1E00127E1213F0BFEB0512117780F51213F04F
:100B2E00BFED051211BF80F51213F0BF772C121313
:100B3E00F0EF647760F875250075260075270A7545
:100B4E002800752900752A0B752B00752C00752D44
:100B5E000C7B007A0079091209A57525007526000F
:100B6E0075270B7B007A007909120E638F0D7525A0
:100B7E000075260075270C7B007A00790A120ED6B6
:080B8E00E50D708BC290808719
:03000B00020F469B
:100F4600C0E0C0F0C083C082C0D075D000C000C071
:100F560001C002C003C004C005C006C007C3E50D3A
:100F66006480F8E5086480985004D290800FC3E549
:100F76000D6480F8E5086480984002C2900508E593
:100F86000875F00A12078A85F008758CD8758AEFFD
:100F9600D007D006D005D004D003D002D001D000AF
:0B0FA600D0D0D082D083D0F0D0E03259
:030023000214C8FC
:0614C800309802C29832C8
:101407005389F0438901C28DD28C758CD8758AEFC8
:05141700D2A9D2AF22B2
:10141C00759850438920758BFD758DFDC2ABD28EAE
:05142C00D2ACD2AF229A
:080003008F993099FDC299228A
:06136F008B738A7489757E
:10137500E4FEEEC39D5018AB730575E575AA747050
:0F13850002057414F91207ACFF1200030E80E387
:011394002236
:080D56008F3B8B3C8A3D893E76
:100D5E00E4F572FFFE1214318F71753FFDE4F5401C
:100D6E00E5712403F541754201E53BC454F044019D
:100D7E00F543E4FEFF743F2FF8E662720FBF0001E9
:100D8E000EEF64054E70EEE4FEFFC3EF9571EE9428
:100D9E00005016AB3CAA3DA93E8F828E831207C52A
:100DAE0062720FBF00010E80E1AF717E0078447C4D
:100DBE00007D00AB3CAA3DA93E1207647444257128
:100DCE00F8A6727B007A00793FE5712406FD0213C6
:010DDE006FA5
:03000000020CCA25
:0C0CCA00787FE4F6D8FD758175020D11ED
:10069400E709F608DFFA8046E709F208DFFA803E48
:1006A40088828C83E709F0A3DFFA8032E309F60835
:1006B400DFFA8078E309F208DFFA807088828C839D
:1006C400E309F0A3DFFA806489828A83E0A3F60851
:1006D400DFFA805889828A83E0A3F208DFFA804C2B
:1006E40080D280FA80C680D4806980F28033801002
:1006F40080A680EA809A80A880DA80E280CA80336B
:1007040089828A83ECFAE493A3C8C582C8CCC583E2
:10071400CCF0A3C8C582C8CCC583CCDFE9DEE780B2
:100724000D89828A83E493A3F608DFF9ECFAA9F031
:10073400EDFB2289828A83ECFAE0A3C8C582C8CC87
:10074400C583CCF0A3C8C582C8CCC583CCDFEADEA0
:10075400E880DB89828A83E493A3F208DFF980CC02
:1007640088F0EF60010E4E60C388F0ED2402B404FB
:100774000050B9F582EB2402B4040050AF232345A2
:0607840082239006E473DD
:10078A00C2D530F707B2D563F0FF05F030E70CB2F7
:10079A00D5F4048463F0FF05F080018430D502F4B7
:0207AA00042227
:1007AC00BB010689828A83E0225002E722BBFE024B
:0907BC00E32289828A83E493227E
:1007C500BB010CE58229F582E5833AF583E02250E9
:1007D50006E92582F8E622BBFE06E92582F8E22233
:0D07E500E58229F582E5833AF583E493224D
:1007F200BB010989828A83F8E028F022500327F797
:1008020022BBFE05F8E328F3228A838982F8E49367
:0208120028229A
:10081400BB010689828A83F0225002F722BBFE01C3
:02082400F322BD
:10082600F8BB010DE58229F582E5833AF583E8F008
:10083600225006E92582C8F622BBFE05E92582C8B4
:02084600F2229C
:10002600E5452439F8E60545227836300702783961
:10003600E475F0011208480207AC2000EB7F2ED2CF
:10004600008018EF540F2490D43440D4FF30040BB2
:10005600EF24BFB41A0050032461FFE54660021581
:10006600460549E5497002054830070D7836E475BE
:10007600F001120848EF0208140213487403D2076D
:100086008003E4C207F5458B368A378938E4F5469E
:10009600F548F549E54660077F2012006180F57551
:1000A60047FFC201C200C202C203C205C206C2089D
:1000B60012002FFF700D3007057F00120072AF4946
:1000C600AE4822B4255FC2D5C20412002FFF24D049
:1000D600B40A00501A75F00A784630D50508B6FFFE
:1000E6000106C6A426F620D5047002D20380D924C0
:1000F600CFB41A00EF5004C2E5D204020272D20154
:1001060080C6D20080C0D20280BCD2D580BAD205C9
:1001160080B47F201200612002077401B5460040BA
:10012600F1120026FF12006102009AD208D2068060
:1001360095120026FB120026FA120026F94A4B7089
:100146000679437A037BFF20022EE546602A7E006D
:100156008E827583001207C560060EEE654770F045
:10016600C2D5EBC0E0EAC0E0E9C0E0EE1202B9D0C9
:10017600E0F9D0E0FAD0E0FB1207ACFF60AAEBC0D2
:10018600E0EAC0E0E9C0E0120061D0E02401F9D065
:10019600E03400FAD0E0FBE5470460DCD547D980BF
:1001A600877BFF7A0279B5D202809C79108002792A
:1001B60008C206C2088008D2D5790A8004790AC224
:1001C600D5E547047002F547E4FAFDFEFF12002666
:1001D600FC7B08200113120026FD7B1030000A125A
:1001E6000026FE120026FF7B20EC3382D592D550E6
:1001F60013C3E43000069FFFE49EFEE42001039D46
:10020600FDE49CFCE4CBF8C201EC700CCFCECDCC67
:10021600E824F8F870F38017C3EF33FFEE33FEEDF2
:1002260033FDEC33FCEB33FB994002FB0FD8E9EBD3
:10023600300105F8D0E0C448B201C0E00AEC4D4EEA
:100246004F78207B0070C2EAB5470040BCC0E01280
:1002560002BBD0F0D0E0200104C4C0E0C4B201C0AB
:10026600F012004AD0F0D5F0EB02009A12085801BD
:10027600375301B15801084C01044201B54F01BD85
:0F0286004401BD49011D4301C35501A74601A70E
:100295004501A747036350010C2D01102E01332B97
:1002A500011423013120034C2A00CC480000012B06
:1002B5003F3F3F00790AA2D5200314300509B91044
:1002C500020404B9080104A2D52006025001042045
:1002D50002689202B546005034C0E07F2030031911
:1002E5007F30A20272067205500F120312C202C2BB
:1002F50006C205C2087F30800F300503E9C0E01251
:100305000061300503D0E0F9D0E0B546CC300517E3
:100315007F30B9100C1200617F583004077F788058
:1003250003B908031200613002057F2D0200617FC9
:10033500202008F87F2B2006F322920280CF286E1A
:10034500756C6C2900D2011200263001F8C20178C3
:100355004630D50108F60200CC2D5043495812000D
:10036500262403B405004001E490035E9312005275
:0D037500743A120052D2037546040201B121
:10143100E4FFFE1207AC600C0FEF70010E09E970BA
:05144100F20A80EF2219
:100CD600020AAEE493A3F8E493A34003F68001F27C
:100CE60008DFF48029E493A3F85407240CC8C3331F
:100CF600C4540F4420C8834004F456800146F6DFEE
:100D0600E4800B01020408102040809014B5E47EB4
:100D1600019360BCA3FF543F30E509541FFEE493E2
:100D2600A360010ECF54C025E060A840B8E493A3A9
:100D3600FAE493A3F8E493A3C8C582C8CAC583CAD4
:100D4600F0A3C8C582C8CAC583CADFE9DEE780BE8C
:0114BB000030
:10084800FAE6FB0808E6F925F0F618E6CA3AF622B1
:10085800D083D082F8E4937012740193700DA3A32F
:1008680093F8740193F5828883E473740293686043
:06087800EFA3A3A380DF43
:10134800EFB40A07740D121353740A309811A89950
:10135800B8130CC2983098FDA899C298B811F63005
:0713680099FDC299F59922DD
:00000001FF
