:0809BD0002080000020A00001C
:10097F001209A820B106750A00750B0120B0067583
:10098F000A00750B0320B206750A00750B0620B31B
:09099F00E2750A00750B0980DA0B
:03000B00020917D0
:10091700C0E0C0F0C0D075D000C000C004C005C0A2
:1009270006C007C3E509950BE50A6480F8E5086486
:1009370080985004D2908013C3E509950BE50A64AB
:1009470080F8E5086480984002C2900509E50970BF
:10095700020508AE08FF7C007D0A12088C8C088D02
:1009670009758C9B758A9BD007D006D005D004D01B
:0809770000D0D0D0F0D0E03236
:1009A8005389F0438901758C9B758A9BC28DD28CC3
:0509B800D2A9D2AF221C
:03000000020800F3
:0C080000787FE4F6D8FD75810B020847F4
:10088C00C2D5EC30E709B2D5E4C39DFDE49CFCEE87
:10089C0030E715B2D5E4C39FFFE49EFE1208C2C335
:1008AC00E49DFDE49CFC80031208C230D507C3E430
:0608BC009FFFE49EFE22F6
:10080C0002097FE493A3F8E493A34003F68001F27A
:10081C0008DFF48029E493A3F85407240CC8C333ED
:10082C00C4540F4420C8834004F456800146F6DFBC
:10083C00E4800B01020408102040809009BDE47E86
:10084C00019360BCA3FF543F30E509541FFEE493B1
:10085C00A360010ECF54C025E060A840B8E493A378
:10086C00FAE493A3F8E493A3C8C582C8CAC583CAA3
:10087C00F0A3C8C582C8CAC583CADFE9DEE780BE5B
:0109C5000031
:1008C200BC000BBE0029EF8DF084FFADF022E4CC1A
:1008D200F875F008EF2FFFEE33FEEC33FCEE9DECE3
:1008E200984005FCEE9DFE0FD5F0E9E4CEFD22ED29
:1008F200F8F5F0EE8420D21CFEADF075F008EF2F73
:10090200FFED33FD4007985006D5F0F222C398FD63
:050912000FD5F0EA2200
:00000001FF
