:100FDD00210020005365743A0041003A004200435D
:060FED000034370054003F
:100DC4000818F2F6F4FCF8F9F1F30822F1F9F8FC4A
:100DD400F4F6F2F30611000000000000012A0007F7
:100DE40009000000000000000117000121000110AB
:0B0DF40000010800022B00000120009D
:070F8E002CF8E6F5907F64EA
:060F9500AE071FEE600E26
:0C0F9B007531027532EFD532FDD531FA08
:030FA70080EC22B9
:100F4F00E4FDFCC3ED9FEC9E5015E4FBFA0BBB00D8
:0F0F5F00010AEB647B4A70F50DBD00010C80E4C4
:010F6E002260
:06103D00000000DFFB22B1
:100F0D00C2957F7812103DD295E4F93095107F018E
:100F1D007E00120F4F09E9D3940540EF1F227F0188
:010F2D0022A1
:0C0E3B00120F0D7F017E00120F4F7FCCC4
:020E4700AE07F4
:100E4900E4FBFAC2950530E5307002052FEE1392E6
:100E5900957F0C12103DD295EEC313FE0BBB00011A
:090E69000AEB64084A70DCAF06D4
:010E7200225D
:100E9D007D08C295052FD295052F052FA295E43318
:100EAD00FCC43333335480FFEEC3134FFE7F09125E
:060EBD00103DDDDEAF0672
:010EC300220C
:10102D00120E3B7F44120E47120E3B7FBE020E473F
:10100800E4FFFE12102D120E9DAB07120E9DEFFE8F
:02101800EBFFEC
:01101A0022B3
:10101B00C2A6C2A5C2A78F80D2A700C2A77F01021A
:02102B000F951F
:0F0F2E007C007D0AAF03AE0212096DEF2430FF85
:100F3D00D2A6C2A5C2A78F80D2A700C2A77F0102E9
:020F4D000F95FE
:100FC4007F0112101B7F0612101B7F0C12101B7F57
:090FD4003812101B7F01020F9579
:060EE9007BFF7A0F79E89F
:100EEF00AD071209546016AF050D12101B120954ED
:0E0EFF00FF120F3D740129F9E43AFA80E52252
:070CEF00FB3395E0FA7F01E1
:100CF6008F2F8D30E52F64017015E530247FFF12AC
:100D0600101B120F2E7C007D0AAF03AE028019E580
:100D16002F6402701DE53024BFFF12101B120F2E28
:100D2600AE02AF037C007D0A12096DED2430FF127E
:030D36000F3D224C
:100FAA00E4FDFC75B0F07F0A120F95E5B054F0FD30
:090FBA0075B00FE5B0540F2DFFD6
:010FC300220B
:100C4200120FAAEF1209F80C8E7D0C7A7E0C89BD68
:100C52000C75BE0C98DB0C84DD0C70DE0C93EB0C77
:100C62007FED0C6BEE00000C9B753301802B75330E
:100C72000280267533038021753304801C75330589
:100C820080177533068012753307800D753308801F
:0B0C9200087533098003E4F533AF332D
:010C9D002234
:100EC400531103531303531503E51275F00A848574
:100ED400F012E51475F00A8485F014E51675F00A2D
:050EE4008485F01622D8
:100A1E00120FAABFE7107411252AF806120FAAEFBB
:100A2E0064E7703080F6120FAABFD70E7411252A14
:100A3E00F816120FAABFD71C80F8120FAABFB71450
:100A4E00052AE52AD394054003E4F52A120FAAEFEE
:100A5E0064B760F8120EC47FC112101B7F3A120FDA
:100A6E003DE5112430FF120F3DE5122430FF120F29
:100A7E003D7FC512101B7F3A120F3DE5132430FF48
:100A8E00120F3DE5142430FF120F3D7FC912101BCB
:100A9E007F3A120F3DE5152430FF120F3DE5162467
:100AAE0030FF120F3D7FCD12101BE52A2431FF02BD
:020ABE000F3DEA
:100BE300E4FFEFD39405502774092FF8E6FEC3649E
:100BF300809498400874092FF8E4F6800EC3EE64DD
:100C0300809480500674092FF876170F0F80D37FD6
:100C130001EFD39405502774092FF8E6FEC36480CF
:100C230094BC400874092FF8E4F6800EC3EE648088
:0E0C33009480500674092FF8763B0F0F80D383
:010C41002290
:10080000120FAAEF64777003020928120BE3C3E505
:100810000F648094847BFF50067A0F79DD80047A20
:100820000F79DF7F8D120EEFE50F75F01912093287
:1008300085F00FC3E50F648094805003750F177B1C
:10084000FF7A0F79E17F80120EEF7A0F79E67FC091
:10085000120EEFE509FB3395E0FA7D027F02120CE0
:10086000F67FC3120EE9E50AFB3395E0FA7D057FBA
:1008700002120CF67BFF7A0F79EA7F87120EEFE502
:100880000B7D09120CEF7F8A120EE9E50C7D0C122C
:100890000CEF7BFF7A0F79EC7FC7120EEFE50DFBB3
:1008A0003395E0FA7D097F02120CF67BFF7A0F790F
:1008B000E87FCA120EEFE50EFB3395E0FA7D0C7F60
:1008C00002120CF6E50FFB3395E0FA7D0F7F011263
:1008D0000CF6120FAABFE71074092517F806120FBD
:1008E000AAEF64E7703080F6120FAABFD70E740922
:1008F0002517F816120FAABFD71C80F8120FAABF2F
:10090000B7140517E517D394064003E4F517120F43
:10091000AAEF64B760F8E5172401FBE433FA7D051C
:100920007F01120CF60208007F0112101B7F0A02E1
:020930000F9521
:100C9E00E521B50913E510B50A0EC2A0D2A1D2A264
:100CAE007BFF7A0F79E6802EE521B50B13E510B5A3
:100CBE000C0ED2A0C2A1D2A27BFF7A0F79EA8016C7
:100CCE00E521B50D19E510B50E14D2A0D2A1C2A220
:100CDE007BFF7A0F79EC7F8A120EEF7F01227F0065
:010CEE0022E3
:100FF3005389F0438901C28DD28C758CD8758AEFE1
:05100300D2A9D2AF22CA
:100D3900C3E508648094BC40060510E4F50822C3A5
:100D4900E510648094BC40060521E4F51022C3E552
:100D590021648094984004E4F52122C3E51064805D
:100D69009480500675103B152122C3E521648094B7
:070D790080500375211722D1
:100E7300120D397BFF7A0F79E87F82120EEFE5219D
:100E8300FB3395E0FA7D017F01120CF6E510FB338D
:0A0E930095E0FA7D047F01020CF6E1
:100E0000120FAABFBB197F0A120F95120FAABFBB00
:100E10000E74052510F510120FAAEF64BB60F812CE
:100E20000FAABF7B157F0A120F95120FAABF7B0A6C
:0B0E30001510120FAAEF647B60F8227F
:100D8000E4FCF52F20961CE5207018120C9EEF60F5
:100D9000127F0A120F9520962A7418120F8E0CBC1F
:100DA00008F72220971DE5207019120C9EEF6013A2
:100DB0007F0A120F9520970BE4FC7422120F8E0C01
:030DC000BC08F775
:010DC300220D
:100AC000120FC4120FF37BFF7A0F79EE7FCE120E56
:100AD000EF1208007BFF7A0F79E67FC0120EEF7AE3
:100AE0000F79EA7FC4120EEF7A0F79EC7FC8120EED
:100AF000EF7A0F79EE7FCE120EEF1210087C007D98
:100B0000101209C28E2D8F2ED3E52E9423E52D943D
:100B10000040057520018003E4F520E5207BFF609F
:100B2000067A0F79DD80047A0F79DF7FCC120EEF21
:100B3000120D807BFF7A0F79F17F86120EEFAB2EBC
:100B4000AA2D7D087F01120CF6120E73120E0012F0
:070B50000A1E120C9E80A397
:03000B00020F6F72
:100F6F00C0E0052CE52C7002052B6464452B700640
:0F0F7F000508F52BF52C758CD8758AEFD0E0326C
:03000000020B5799
:0C0B5700787FE4F6D8FD758133020B9E18
:10093200C2D530F707B2D563F0FF05F030E70CB24D
:10094200D5F4048463F0FF05F080018430D502F40D
:0209520004227D
:10095400BB010689828A83E0225002E722BBFE02A1
:09096400E32289828A83E49322D4
:10096D00BC000BBE0029EF8DF084FFADF022E4CC6E
:10097D00F875F008EF2FFFEE33FEEC33FCEE9DEC37
:10098D00984005FCEE9DFE0FD5F0E9E4CEFD22ED7D
:10099D00F8F5F0EE8420D21CFEADF075F008EF2FC7
:1009AD00FFED33FD4007985006D5F0F222C398FDB8
:0509BD000FD5F0EA2255
:1009C200C2D5EC30E709B2D5E4C39DFDE49CFCEE50
:1009D20030E715B2D5E4C39FFFE49EFE12096DC352
:1009E200E49DFDE49CFC800312096D30D507C3E44D
:0609F2009FFFE49EFE22BF
:1009F800D083D082F8E4937012740193700DA3A38E
:100A080093F8740193F5828883E4737402936860A1
:060A1800EFA3A3A380DFA1
:100B6300020AC0E493A3F8E493A34003F68001F2DE
:100B730008DFF48029E493A3F85407240CC8C33393
:100B8300C4540F4420C8834004F456800146F6DF62
:100B9300E4800B0102040810204080900DC4E47E21
:100BA300019360BCA3FF543F30E509541FFEE49357
:100BB300A360010ECF54C025E060A840B8E493A31E
:100BC300FAE493A3F8E493A3C8C582C8CAC583CA49
:100BD300F0A3C8C582C8CAC583CADFE9DEE780BE01
:010DFF0000F3
:00000001FF
