:0C099F000A083F065B4F666D7D077F6F06
:0D099100007F047ECD7DBBDDFEDEFCDFFAC5
:01099E002236
:100917008C148D15AB07AA067C007D0212088CEC9F
:100927004D24FF92A27C007D02AF03AE0212088C19
:10093700AA06AB077C007D0212088CEC4D24FF92BF
:10094700A37C007D02AF03AE0212088C7C007D02FF
:1009570012088CEC4D24FF92A474082515F8E6F5CF
:020967008022EC
:10096900E4F512F513120991AD13AC12AF13AE12DF
:100979001209170513E51370020512D39407E5123E
:080989006480948040DF80D8F7
:03000000020800F3
:0C080000787FE4F6D8FD758115020847EA
:10088C00C2D5EC30E709B2D5E4C39DFDE49CFCEE87
:10089C0030E715B2D5E4C39FFFE49EFE1208C2C335
:1008AC00E49DFDE49CFC80031208C230D507C3E430
:0608BC009FFFE49EFE22F6
:10080C00020969E493A3F8E493A34003F68001F290
:10081C0008DFF48029E493A3F85407240CC8C333ED
:10082C00C4540F4420C8834004F456800146F6DFBC
:10083C00E4800B010204081020408090099FE47EA4
:10084C00019360BCA3FF543F30E509541FFEE493B1
:10085C00A360010ECF54C025E060A840B8E493A378
:10086C00FAE493A3F8E493A3C8C582C8CAC583CAA3
:10087C00F0A3C8C582C8CAC583CADFE9DEE780BE5B
:0109AB00004B
:1008C200BC000BBE0029EF8DF084FFADF022E4CC1A
:1008D200F875F008EF2FFFEE33FEEC33FCEE9DECE3
:1008E200984005FCEE9DFE0FD5F0E9E4CEFD22ED29
:1008F200F8F5F0EE8420D21CFEADF075F008EF2F73
:10090200FFED33FD4007985006D5F0F222C398FD63
:050912000FD5F0EA2200
:00000001FF
