:020D72002E0051
:100BBA00120D15120D55120B5A1209E4AB077D01DD
:100BCA007F02120BFE7BFF7A0D79727FC3120C39FA
:100BDA00120B5A7B007A40791C78461208001209D7
:100BEA00E4E47B107A27F9F8120ABA7D057F02122B
:040BFA000BFE80BFAF
:100C6E00E47E01D2B7C2B77FE3DFFED2B77F11DFDA
:0C0C7E00FEA2B7E433FE7FE3DFFEAF060A
:010C8A002247
:100C8B00D2B7C2B7EF60087E03DEFED2B78009EFA2
:0C0C9B0070067E28DEFED2B77E1BDEFE57
:010CA700222A
:100CC500E4FED2B7C2B77F03DFFED2B77F04DFFEF3
:0B0CD500A2B7E433FE7F1BDFFEAF067A
:010CE00022F1
:020CFC00AD0742
:100CFE00E4FC7401A804088002C333D8FC5DFF1223
:060D0E000C8B0CBC08EC8C
:010D140022BC
:100CA800E4FDFC120CC5EF600D7401A80508800274
:0C0CB800C333D8FC42040DBD08E9AF04B2
:010CC400220D
:100D5500120C6EEF700A7FCC120CFC7F44120CFC57
:010D6500226B
:100B5A00E4F508F509F50AF50BF50CF50DF511F5AF
:100B6A0010F50FF50E120C6EEF70447FCC120CFCD0
:100B7A007FBE120CFC120CA87508008F09120CA873
:100B8A00750A008F0BE50B750B00F50A4508F50C85
:100B9A00E50B4509F50DAC0CFDEC1209ABE4FBFACB
:0F0BAA00798078411209098F118E108D0F8C0EF2
:010BB9002219
:060D2E00AE071FEE600E8F
:0C0D3400750C02750DEFD50DFDD50CFA05
:030D400080EC2222
:100D4300C2A6C2A5C2A78F80D2A700C2A77F0102F5
:020D53000D2E63
:090CE10075F00A84E5F02430FFEF
:100CEA00D2A6C2A5C2A78F80D2A700C2A77F01023F
:020CFA000D2EBD
:100D15007F01120D437F06120D437F0C120D437F99
:090D250038120D437F01020D2E6E
:100C39008F088B098A0A890BAB09AA0AA90B120A20
:100C4900656021AF080508120D43AB09AA0AA90B73
:100C5900120A65FF120CEA7401250BF50BE4350A3B
:050C6900F50A80D42211
:100BFE008F088D098B0AE50864017006E509247FCC
:100C0E00800AE50864027022E50924BFFF120D4335
:100C1E00E50A75F064842430FF120CEAE50A75F0DB
:0B0C2E000A84120CE1E50A120CE1221E
:10080000EC4D6011E8497017ED33EC3304600DE4F2
:10081000FCFFFEFD22E933E8330470F8020A5012AF
:100820000A1B58046009E4CC2481500628500902B0
:100830000A5A284003020A57C0E0EB4A7044B980C4
:1008400006D0E0FB020A46EF4E701CBD8008EBFFAD
:10085000EAFEE9FD80EBE98DF0A4FEE5F00208E98F
:10086000E9CDF9EAFEEBFFEF89F0A4FCE5F0CE89D3
:10087000F0A42EFFE435F0CD89F0A42DFEE435F090
:100880008067EF4E7005BD80D780C3EF8BF0A4ACBE
:10089000F0EE8BF0A42CFCE435F0F8EF8AF0A42CF9
:1008A000E5F038FCE433CB8DF0A42CFCE5F03BF80C
:1008B000EE8AF0A42CFCE5F038F8E433CF89F0A4FC
:1008C0002CFCE5F038CF3400CE89F0A42FFFE5F002
:1008D0003EFEE433C98DF0A42EFEE5F039CD8AF05A
:1008E000A42FFFE5F03EFEE43DFD33D0E0FB5007D2
:1008F0000BBB000F020A5AEC2CFCEF33FFEE33FE69
:06090000ED33FD020A3296
:10090600020A5AEC5D046005E859047003020A50B5
:10091600120A1B580460F6EC4860F2EC7004FDFE07
:10092600FF22C860DB2481C85009C39860025006C4
:10093600020A579850CAF582E9294B4A7005AB82DC
:10094600020A4675F0007C1A7880C3EF9BEE9AED9A
:1009560099400DC3EF9BFFEE9AFEED99FDE842F03C
:10096600DC23ACF0D0E0FFD0E0FED0E0FDAB82208F
:10097600E7101BEB60BAEC2CFCEF33FFEE33FEED19
:1009860033FD020A32E803F830E705C0F075F000DF
:10099600EF2FFFEE33FEED33FD40B830E7C280AAFD
:1009A60075F020800E75F010800575F0087D007ECC
:1009B600007F003392D530D503120B4CEC33401038
:1009C600EF33FFEE33FEED33FDEC33FCD5F0ED22D5
:0E09D600E5F0247EA2D513CC92E7CDCEFF2211
:1009E400EDD2E7CD33EC3392D524814006E4FFFE0B
:1009F400FDFC22FCE4CFCECDCC24E0501174FF806A
:100A0400EDC3CC13CCCD13CDCE13CECF13CF047006
:070A1400F030D5DE020B4CAF
:100A1B00E9D2E7C933E833F892D5EDD2E7CD33EC21
:070A2B0033FC5002B2D5229A
:100A3200EC30E7100FBF000C0EBE00080DBD000425
:100A42000BEB6014A2D5EB13FCED92E7FD2274FFD1
:100A5200FCFDFEFF22E480F8A2D574FF13FC7D802A
:030A6200E480EF3E
:03000000020D6688
:0C0D6600787FE4F6D8FD758111020BBA0D
:100A6500BB010689828A83E0225002E722BBFE028F
:090A7500E32289828A83E49322C2
:100A7E0075F008758200EF2FFFEE33FECD33CDCC2F
:100A8E0033CCC58233C5829BED9AEC99E5829840B2
:100A9E000CF582EE9BFEED9AFDEC99FC0FD5F0D68F
:100AAE00E4CEFBE4CDFAE4CCF9A88222B800C1B9B9
:100ABE000059BA002DEC8BF084CFCECDFCE5F0CBF7
:100ACE00F97818EF2FFFEE33FEED33FDEC33FCEB30
:100ADE0033FB10D703994004EB99FB0FD8E5E4F9EB
:100AEE00FA227818EF2FFFEE33FEED33FDEC33FCD8
:100AFE00C933C910D7059BE99A4007EC9BFCE99ACC
:100B0E00F90FD8E0E4C9FAE4CCFB2275F010EF2F10
:100B1E00FFEE33FEED33FDCC33CCC833C810D70710
:100B2E009BEC9AE899400AED9BFDEC9AFCE899F84B
:0E0B3E000FD5F0DAE4CDFBE4CCFAE4C8F922DE
:0E0B4C00C3E49FFFE49EFEE49DFDE49CFC22BA
:00000001FF
