:1009D0007FF4120A1B7FF4120A1B7FF4120A1B1207
:1009E0000A027B007A007908120800AB087D017FBB
:1009F0000112092BAB0A7D017F0212092B120A5446
:020A000080E094
:0C0A6200D2A3C2A3120A7AD2A3020A8F08
:10096400E4FFFE30A30B000EEED3946440F57F65E4
:1009740022A2A3E433FFE4FE20A30B000EEED394E3
:100984003240F57F6622E4FE30A30B000EEED394D2
:060994003240F57F6722EE
:01099A00223A
:1008DB00E4F511F512F513F513E4F51220A30D0051
:1008EB000512E512D3943240F37F6822120A893045
:1008FB00A30FAF137480A807088002C313D8FC4260
:10090B0011E4F51230A30D000512E512D394324019
:0F091B00F37F69220513E513C3940840BCAF11A5
:01092A0022AA
:060800008B0D8A0E890F2A
:10080600E4F510120A62120964EF705EF510120820
:10081600DBAB0DAA0EA90F851082758300EF1208B7
:10082600B90510E510C3940540E4AB0DAA0EA90F57
:1008360090000112088CFF1208732FFFE433FE901C
:10084600000212088C7C002FFFEC3EFE9000031283
:10085600088C2FFFEC3EFE90000412088CB50707AB
:0C086600ECB506037F00227F6A227F6B46
:010872002263
:060A1B00AE071FEE600EA5
:0C0A21007510027511EFD511FDD510FA0B
:030A2D0080EC2238
:080A7A007F247ED9DEFEDFFCC3
:010A82002251
:040A8F007F0BDFFEFC
:010A93002240
:050A8300007F14DFFEFE
:010A8800224B
:050A8900007F0FDFFEFD
:010A8E002245
:0D0A5400007F087E017DF3DDFEDEFCDFFA91
:010A61002272
:100A3000C2A6C2A5C2A78F80D2A700C2A77F01020B
:020A40000A1B8F
:100A4200D2A6C2A5C2A78F80D2A700C2A77F0102E9
:020A52000A1B7D
:100A02007F01120A307F06120A307F0C120A307FF1
:090A120038120A307F01020A1BB0
:10099B008F148B158A168917AB15AA16A91712086F
:1009AB00736021AF140514120A30AB15AA16A917E0
:1009BB00120873FF120A4274012517F517E4351656
:0509CB00F51680D422A6
:10092B008F0D8D0E8B0FE50DB40106E50E247F8028
:10093B0009E50DB40222E50E24BFFF120A30E50FC4
:10094B0075F00A842430FF120A42E50F75F00A8411
:09095B00E5F02430FF120A4222EB
:03000000020A6E83
:0C0A6E00787FE4F6D8FD7581170209D0EE
:10087300BB010689828A83E0225002E722BBFE0283
:09088300E32289828A83E49322B6
:10088C00BB010CE58229F582E5833AF583E0225021
:10089C0006E92582F8E622BBFE06E92582F8E2226B
:0D08AC00E58229F582E5833AF583E4932285
:1008B900F8BB010DE58229F582E5833AF583E8F075
:1008C900225006E92582C8F622BBFE05E92582C821
:0208D900F22209
:00000001FF
