:100BB3008F218C228D23120CD77FA0120B8A120C4B
:100BC300B8AF21120B8A120CB8AF23120B8A120C86
:040BD300B8020CE078
:020B5A008F14F6
:100B5C00120CD77FA0120B8A120CB8AF14120B8A8E
:100B6C00120CB8120CD77FA1120B8A120CB8120BF4
:0D0B7C00D78F157F01120CC4120CE0AF15CD
:010B89002249
:060C4000AE071FEE600E7E
:0C0C46007525027526EFD526FDD525FA90
:030C520080EC2211
:080CCE007F247ED9DEFEDFFC6D
:010CD60022FB
:040CFC007F0BDFFE8D
:010D000022D0
:050CF000007F14DFFE8F
:010CF50022DC
:050CF600007F0FDFFE8E
:010CFB0022D6
:0D0C9E00007F087E017DF3DDFEDEFCDFFA45
:010CAB002226
:100C8E004E6F7748756D3A004E6F77546D703A001F
:0C0CAC00D2A3C2A3120CCED2A3020CFCF7
:100ABC00E4FFFE30A30B000EEED3946440F57F658B
:100ACC0022A2A3E433FFE4FE20A30B000EEED3948A
:100ADC003240F57F6622E4FE30A30B000EEED39479
:060AEC003240F57F672295
:010AF20022E1
:0A08CF00AB0EAA0FA910EF120639B4
:1008D900E4F512F513F514F514E4F51320A30D004E
:1008E9000513E513D3943240F37F6822120CF630D6
:1008F900A30FAF147480A807088002C313D8FC4261
:1009090012E4F51330A30D000513E513D394324017
:0F091900F37F69220514E514C3940840BCAF12A4
:0109280022AC
:060774007B007A00792DE4
:06077A008B0E8A0F8910AE
:10078000E4F511120CAC120ABCEF706F1208D9AB71
:100790000EAA0FA910EF1206271208D99000011215
:1007A00008CF9000021208CFAB0EAA0FA91090003C
:1007B000031208D5AB0EAA0FA910900004EF120681
:1007C000399000011205D8FF1205BF2FFFE433FE58
:1007D0009000021205D87C002FFFEC3EFE90000333
:1007E0001205D82FFFEC3EFE9000041205D8B50785
:0D07F00007ECB506037F00227F6A227F6BB5
:0107FD0022D9
:100AF3007BFF7A0C798E7F80120A877BFF7A0C79D1
:100B0300967FC0120A87120774EF7017AB2D7D080A
:100B13007F01120A48AB2F7D087F02120A487FF437
:040B2300120C40224E
:100980008B088A09890A120774EF70FAAB08AA0962
:10099000A90A1205BFFEE52DD39E4013AB0BAA0C8E
:1009A000A90D1205BFFFE52FD39F40037F0922E564
:1009B0002DD39E5010AB0BAA0CA90D1205BFFFE55D
:0B09C0002FD39F40037F02227F002204
:1009CB008B088A09890A120774EF70FAAB08AA0917
:1009DB00A90A1205BFFFE52DC39F4010AB0BAA0C54
:1009EB00A90D1205BFFEE52FC39E5003C2A222E53F
:0E09FB002DD39F4008E52FD39E4002D2A222AA
:10065B001205BFD39463400574631206271205BFBE
:10066B00D3943250057432120627AB17AA18A91966
:10067B001205BFC3940F5005740F120627AB17AAB0
:10068B0018A9191205BFD3943240057432120627EC
:10069B00AB1AAA1BA91C1205BFD3942840057428BA
:1006AB00120627AB1AAA1BA91C1205BFD39419500B
:1006BB00057419120627AB1DAA1EA91F1205BFC36D
:1006CB00940550057405120627AB1DAA1EA91F120F
:0D06DB0005BFD3941940057419120627229B
:100869008B088A09890A7F01120B5AAB08AA09A9C0
:100879000AEF1206277F02120B5AAB0BAA0CA90D1D
:10088900EF1206277F03120B5AAB0EAA0FA910EF1E
:100899001206277F04120B5AAB11AA12A913EF12E1
:1008A9000627850B17850C18850D19850E1A850FD6
:1008B9001B85101C85111D85121E85131FAB08AAE7
:0608C90009A90A02065B0A
:090CD700D2A1D2A0C2A0C2A12248
:090CE000C2A1C2A0D2A1D2A0223F
:020B8A00AD07B5
:100B8C00E4FB74807E00A803088006CEA2E713CE97
:100B9C0013D8F8FFEDF582EF558224FF92A0D2A175
:060BAC00C2A10BBB08DC36
:010BB2002220
:100BD700E4FFD2A0FE30A00D7480A806088002C3EF
:0D0BE70013D8FC4207D2A1C2A10EBE08E83F
:010BF40022DE
:0A0CC400EF24FF92A0D2A1C2A122EA
:0B0CB800D2A0A2A0E433FFD2A1C2A191
:010CC300220E
:100A09004F6E65746F7563685365743A20002020D2
:100A19002020202020202020202000546F616D619B
:100A2900746F2100456767706C616E7421004361C2
:0C0A390072726F7421004C65656B210027
:100C29007590F07F0A120C40E59054F0FF75900F13
:060C3900E590540F2FFFAF
:010C3F002292
:10029B008B148A158916120C29BF771EAB14AA155D
:1002AB00A91674011206051205BFFD7C007F011211
:1002BB000BB3120C29EF647760F8120C29BF7B1E6D
:1002CB00AB14AA15A91674FF1206051205BFFD7C07
:1002DB00007F01120BB3120C29EF647B60F8120C38
:1002EB0029BF7D1EAB17AA18A91974011206051296
:1002FB0005BFFD7C007F02120BB3120C29EF647D4E
:10030B0060F8120C29BF7E1EAB17AA18A91974FF2F
:10031B001206051205BFFD7C007F02120BB3120CF7
:10032B0029EF647E60F8120C29BFB71EAB1AAA1B0B
:10033B00A91C74011206051205BFFD7C007F031278
:10034B000BB3120C29EF64B760F8120C29BFBB1E5C
:10035B00AB1AAA1BA91C74FF1206051205BFFD7C64
:10036B00007F03120BB3120C29EF64BB60F8120C65
:10037B0029BFBD1EAB1DAA1EA91F740112060512B3
:10038B0005BFFD7C007F04120BB3120C29EF64BD7B
:10039B0060F8120C29BFBE1EAB1DAA1EA91F74FF4D
:1003AB001206051205BFFD7C007F04120BB3120C65
:0703BB0029EF64BE60F82287
:06000E008B148A1589160F
:100014007F01120C6A7F64120C4075200FE52024C6
:1000240080FF7BFF7A0A7909120A877F2C120C4021
:100034001520C3E5206480948050E2120C29EF64FB
:10004400EE7003020291120C29EF64D760030200E0
:10005400DB7BFF7A0A79177FC0120A877BFF7A0A53
:1000640079247FC0120A87AB14AA15A916743C120E
:100074000627AB14AA15A9161205BFFD7C007F0143
:10008400120BB3AB17AA18A919741E120627AB17C3
:10009400AA18A9191205BFFD7C007F02120BB3AB8D
:1000A4001AAA1BA91C741E120627AB1AAA1BA91C88
:1000B4001205BFFD7C007F03120BB3AB1DAA1EA962
:1000C4001F7419120627AB1DAA1EA91F1205BFFD16
:1000D4007C007F04120BB3120C29EF64DB60030273
:1000E400016C7BFF7A0A79177FC0120A877BFF7A3B
:1000F4000A792D7FC0120A87AB14AA15A916742891
:10010400120627AB14AA15A9161205BFFD7C007FA1
:1001140001120BB3AB17AA18A919741E120627AB48
:1001240017AA18A9191205BFFD7C007F02120BB390
:10013400AB1AAA1BA91C741E120627AB1AAA1BA968
:100144001C1205BFFD7C007F03120BB3AB1DAA1E5E
:10015400A91F740F120627AB1DAA1EA91F1205BFE3
:10016400FD7C007F04120BB3120C29EF64DD6003E5
:100174000201FD7BFF7A0A79177FC0120A877BFF91
:100184007A0A79377FC0120A87AB14AA15A91674A4
:1001940032120627AB14AA15A9161205BFFD7C005E
:1001A4007F01120BB3AB17AA18A9197423120627DF
:1001B400AB17AA18A9191205BFFD7C007F02120B08
:1001C400B3AB1AAA1BA91C741E120627AB1AAA1BCE
:1001D400A91C1205BFFD7C007F03120BB3AB1DAA43
:1001E4001EA91F740D120627AB1DAA1EA91F1205F6
:1001F400BFFD7C007F04120BB3120C29EF64DE6098
:100204000302003F7BFF7A0A79177FC0120A877BBB
:10021400FF7A0A793F7FC0120A87AB14AA15A91680
:100224007446120627AB14AA15A9161205BFFD7C45
:10023400007F01120BB3AB17AA18A9197428120670
:1002440027AB17AA18A9191205BFFD7C007F02125B
:100254000BB3AB1AAA1BA91C7419120627AB1AAA52
:100264001BA91C1205BFFD7C007F03120BB3AB1D41
:10027400AA1EA91F7414120627AB1DAA1EA91F12B9
:1002840005BFFD7C007F04120BB302003F7F011207
:070294000C6A7F64020C40BC
:100B270057656C636F6D6520746F20757365210061
:100B3700506C6561736520736574212020202D3EFC
:100B47000068756D3A00746D703A004D4158004D5C
:030B5700494E0004
:100C6A00C2A6C2A5C2A78F80D2A700C2A77F0102CF
:020C7A000C402C
:100C7C00D2A6C2A5C2A78F80D2A700C2A77F0102AD
:020C8C000C401A
:100C10007F01120C6A7F06120C6A7F0C120C6A7F2D
:090C200038120C6A7F01020C403D
:060A81007BFF7A0B7952A5
:100A87008F218B228A238924AB22AA23A92412052A
:100A9700BF6021AF210521120C6AAB22AA23A9242A
:100AA7001205BFFF120C7C74012524F524E43523BD
:050AB700F52380D422AC
:030A4500FB7F0133
:100A48008F148D158B16E514B40106E515247F80E7
:100A580009E514B40222E51524BFFF120C6AE51655
:100A680075F00A842430FF120C7CE51675F00A84B0
:090A7800E5F02430FF120C7C2291
:1009290075080FE5082480FF7BFF7A0B7927120AE7
:10093900877F2C120C401508C3E508648094805009
:10094900E275080FE50824C0FF7BFF7A0B7937129F
:100959000A877F2C120C401508C3E508648094802F
:1009690050E2120C29BFEEFA7F64120C407F01128B
:070979000C6A7F64020C40D0
:1003C2008B088A09890A7F01120C6A120C29EF64D0
:1003D200EE70030204C1120C29BFE724850B1785B6
:1003E2000C18850D19850E1A850F1B85101C851199
:1003F2001D85121E85131FAB08AA09A90A12000E39
:10040200850B17850C18850D19850E1A850F1B850E
:10041200101C85111D85121E85131FAB08AA09A980
:100422000A12029B850B17850C18850D19850E1A69
:10043200850F1B85101C85111D85121E85131FAB90
:1004420008AA09A90A12065B7BFF7A0B79487F800A
:10045200120A877BFF7A0B794D7FC0120A877F854C
:10046200120A81AB08AA09A90A1205BF7D09120A5C
:10047200457BFF7A0B79567F8B120A87AB0BAA0C4E
:10048200A90D1205BF7D0F120A457FC5120A81AB65
:100492000EAA0FA9101205BFFB7D097F02120A489E
:1004A2007BFF7A0B79567FCB120A87AB11AA12A96E
:1004B200131205BFFB7D0F7F02120A480203CD7F94
:0904C20001120C6A7FE8020C40F3
:060CE900012700012C00B0
:1004CB007FDC120C40120C10120C55120BF5750B35
:1004DB0000750C00750D29750E00750F0075102A2F
:1004EB0075110075120075132B7B007A0079281299
:1004FB000869120929750B00750C00750D29750E0D
:10050B0000750F0075102A75110075120075132BED
:10051B007B007A0079281203C2750B00750C0075ED
:10052B000D2A7B007A0079281209808F2CC2B71212
:10053B000AF3120C29BF772C120C29EF647760F8A1
:10054B00750B00750C00750D29750E00750F007578
:10055B00102A75110075120075132B7B007A007928
:10056B00281203C2750B00750C00750D2A7B007ADF
:10057B000079281209808F2C750B00750C00750DF6
:10058B002B7B007A0079291209CBE52C70A1C2B71D
:02059B00809D41
:03000B000207FEEB
:1007FE00C0E0C0F0C083C082C0D075D000C000C0C1
:10080E0001C002C003C004C005C006C007C3E52C6A
:10081E006480F8E5276480985004D2B7800FC3E552
:10082E002C6480F8E5276480984002C2B70527E55E
:10083E002775F00A12059D85F027758CD8758AEFFD
:10084E00D007D006D005D004D003D002D001D000FE
:0B085E00D0D0D082D083D0F0D0E032A8
:100C55005389F0438901C28DD28C758CD8758AEF82
:050C6500D2A9D2AF226C
:100BF50075985043878053890F438920D28E758D10
:0B0C0500F4758BF4C2ABD2ACD2AF226E
:080003008F993099FDC299228A
:030000000206E80D
:0C06E800787FE4F6D8FD75813102072F01
:10059D00C2D530F707B2D563F0FF05F030E70CB2E6
:1005AD00D5F4048463F0FF05F080018430D502F4A6
:0205BD00042216
:1005BF00BB010689828A83E0225002E722BBFE023A
:0905CF00E32289828A83E493226D
:1005D800BB010CE58229F582E5833AF583E02250D8
:1005E80006E92582F8E622BBFE06E92582F8E22222
:0D05F800E58229F582E5833AF583E493223C
:10060500BB010989828A83F8E028F022500327F785
:1006150022BBFE05F8E328F3228A838982F8E49356
:02062500282289
:10062700BB010689828A83F0225002F722BBFE01B2
:02063700F322AC
:10063900F8BB010DE58229F582E5833AF583E8F0F7
:10064900225006E92582C8F622BBFE05E92582C8A3
:02065900F2228B
:1006F4000204CBE493A3F8E493A34003F68001F24D
:1007040008DFF48029E493A3F85407240CC8C33306
:10071400C4540F4420C8834004F456800146F6DFD5
:10072400E4800B0102040810204080900CE9E47E70
:10073400019360BCA3FF543F30E509541FFEE493CA
:10074400A360010ECF54C025E060A840B8E493A391
:10075400FAE493A3F8E493A3C8C582C8CAC583CABC
:10076400F0A3C8C582C8CAC583CADFE9DEE780BE74
:010CEF000004
:00000001FF
