:1009D20030303A30303A3030004E6F7754696D65BE
:0209E2003A00D9
:0D0A0800011200010F00010E00021000009D
:10095700E50EB43C05050FE4F50EE50FB43C0505BF
:0D09670012E4F50EE512B41803E4F51222B7
:10088C001209A61209747BFF7A0979D27FC012096A
:10089C00017BFF7A0979DB7F80120901AB0E7D07A2
:1008AC007F021208C8AB0F7D047F021208C8AB127E
:0C08BC007D017F021208C812095780E07D
:03000B00020936B1
:10093600C0E00511E51170020510758CD8758AEFB7
:10094600E511646445107006F510F511050ED0E04A
:01095600326E
:0609BD00AE071FEE600E04
:0C09C300750C02750DEFD50DFDD50CFA7A
:0309CF0080EC2297
:1009E400C2A6C2A5C2A78F80D2A700C2A77F010258
:0209F40009BD3B
:1009F600D2A6C2A5C2A78F80D2A700C2A77F010236
:020A060009BD28
:100974007F011209E47F061209E47F0C1209E47F67
:09098400381209E47F010209BDEB
:100901008F088B098A0A890BAB09AA0AA90B12095C
:100911008D6021AF0805081209E4AB09AA0AA90BE9
:1009210012098DFF1209F67401250BF50BE4350A46
:05093100F50A80D4224C
:1008C8008F088D098B0AE508B40106E509247F80A5
:1008D80009E508B40222E50924BFFF1209E4E50A84
:1008E80075F00A842430FF1209F6E50A75F00A84C7
:0908F800E5F02430FF1209F6229C
:1009A6005389F0438901C28DD28C758CD8758AF033
:0709B600D2A9D2AFC2B922A1
:03000000020800F3
:0C080000787FE4F6D8FD758112020847ED
:10098D00BB010689828A83E0225002E722BBFE0268
:09099D00E32289828A83E493229B
:10080C0002088CE493A3F8E493A34003F68001F26E
:10081C0008DFF48029E493A3F85407240CC8C333ED
:10082C00C4540F4420C8834004F456800146F6DFBC
:10083C00E4800B0102040810204080900A08E47E3A
:10084C00019360BCA3FF543F30E509541FFEE493B1
:10085C00A360010ECF54C025E060A840B8E493A378
:10086C00FAE493A3F8E493A3C8C582C8CAC583CAA3
:10087C00F0A3C8C582C8CAC583CADFE9DEE780BE5B
:010A150000E0
:00000001FF
