:04096900020C00007C
:0509640012091480FEE1
:03000B000208C127
:1008C100C0E0050DE50D7002050C758CD8758AEF39
:1008D100E50D6464450C7006F50CF50DB2A0D0E091
:0108E10032E4
:06092B00AE071FEE600E96
:0C093100750E02750FEFD50FFDD50EFA04
:03093D0080EC2229
:10094000C2A6C2A5C2A78F80D2A700C2A77F0102FC
:02095000092B71
:10095200D2A6C2A5C2A78F80D2A700C2A77F0102DA
:02096200092B5F
:1008E2007F011209407F061209407F0C1209407FE6
:0908F200381209407F0102092BB4
:10088C008F088B098A0A890BAB09AA0AA90B1208D3
:10089C00FB6021AF080508120940AB09AA0AA90B95
:1008AC001208FBFF1209527401250BF50BE4350AF3
:0508BC00F50A80D422C2
:100914005389F0438901C28DD28C758CD8758AF0C5
:07092400D2A9D2AFC2B92233
:03000000020800F3
:0C080000787FE4F6D8FD75810F020847F0
:1008FB00BB010689828A83E0225002E722BBFE02FB
:09090B00E32289828A83E493222D
:10080C00020964E493A3F8E493A34003F68001F295
:10081C0008DFF48029E493A3F85407240CC8C333ED
:10082C00C4540F4420C8834004F456800146F6DFBC
:10083C00E4800B0102040810204080900969E47EDA
:10084C00019360BCA3FF543F30E509541FFEE493B1
:10085C00A360010ECF54C025E060A840B8E493A378
:10086C00FAE493A3F8E493A3C8C582C8CAC583CAA3
:10087C00F0A3C8C582C8CAC583CADFE9DEE780BE5B
:01096D000089
:00000001FF
