:0209B00080FEC7
:09099E00D2A0D2A1C2A0C2A12284
:0909A700C2A1C2A0D2A1D2A0227B
:0208A100AD07A1
:1008A300E4FB74807E00A803088006CEA2E713CE83
:1008B30013D8F8FFEDF582EF558224FF92A0D2A161
:0608C300C2A10BBB08DC22
:0108C900220C
:1008F300E4FFFED2A030A00D7480A806088002C3D6
:0D09030013D8FC4207D2A1C2A10EBE08E825
:0109100022C4
:0A099400EF24FF92A0D2A1C2A1221D
:0B097C00D2A0D2A1A2A0E433FFC2A1D0
:01098700224D
:1008CA008F0C8C0D8D0E12099E7FA01208A11209A1
:1008DA007CAF0C1208A112097CAF0E1208A11209F2
:0908EA007C1209A77F05020943F5
:02086E008F12E7
:10087000E4F51312099E7FA01208A112097CAF12A1
:100880001208A112097C12099E7FA11208A1120967
:100890007C1208F38F137F011209941209A7AF137A
:0108A0002235
:06094300AE071FEE600E7E
:0C0949007514027515EFD515FDD514FAD4
:0309550080EC2211
:10095800C2A6C2A5C2A78F80D2A700C2A77F0102E4
:02096800094341
:10096A00D2A6C2A5C2A78F80D2A700C2A77F0102C2
:02097A0009432F
:100911007F011209587F061209587F0C1209587F6E
:09092100381209587F0102094354
:100839008F088B098A0A890BAB09AA0AA90B120925
:100849002A6021AF080508120958AB09AA0AA90BA1
:1008590012092AFF12096A7401250BF50BE4350AFE
:05086900F50A80D42215
:100800008F0F8D108B11E50FB40106E510247F804A
:1008100009E50FB40222E51024BFFF120958E511C3
:1008200075F00A842430FF12096AE51175F00A8414
:09083000E5F02430FF12096A22F0
:030000000209886A
:0C098800787FE4F6D8FD7581150209B0F7
:10092A00BB010689828A83E0225002E722BBFE02CB
:09093A00E32289828A83E49322FE
:00000001FF
