:100A40003030303000456E747279436F6465004F0A
:060A50004B00455252006C
:0D0A8F0005083232333300040D0000000072
:100986008B138A148915AB16AA17A918120A1060B8
:10099600260518E5187002051714F9120A10FFABA0
:1009A600130515E515AA147002051414F9120A1098
:0C09B6006F60D3E4FEFF227E007F012270
:10080000E4F511F5121209F77BFF7A0A79407F802F
:100810001209C27BFF7A0A79457FC31209C2120A04
:1008200029EF2485603124FE605014607024076035
:10083000030208BEE5122480FF120A6B7F31120A00
:100840007D7FC8120A56740D2512F876310512E51F
:1008500012706B05118067E5122480FF120A6B7F0E
:1008600032120A7D7FC8120A56740D2512F87632AC
:100870000512E512704805118044E5122480FF122C
:100880000A6B7F33120A7D7FC8120A56740D251237
:10089000F876330512E512702505118021E5122442
:1008A00080FF120A6B7F34120A7D7FC8120A5674C9
:1008B0000D2512F876340512E51270020511E512C5
:1008C00064044511600302081EF5167517007518BB
:1008D00008FB7A00790D120986EF64014E7BFF70E8
:1008E000087A0A794F7FCE80067A0A79527F8D1274
:0A08F00009C2E4F511F51202081E1A
:060A5600AE071FEE600E6A
:0C0A5C007517027518EFD518FDD517FAB4
:030A680080EC22FD
:100A6B00C2A6C2A5C2A78F80D2A700C2A77F0102D0
:020A7B000A5619
:100A7D00D2A6C2A5C2A78F80D2A700C2A77F0102AE
:020A8D000A5607
:1009F7007F01120A6B7F06120A6B7F0C120A6B7F4C
:090A070038120A6B7F01020A5645
:1009C2008F138B148A158916AB14AA15A916120A4D
:1009D200106021AF130513120A6BAB14AA15A916E6
:1009E200120A10FF120A7D74012516F516E4351558
:0509F200F51580D42280
:100A29007590F07F0A120A56E59054F0FF75900F01
:060A3900E590540F2FFFB1
:010A3F002294
:030000000208FAF9
:0C08FA00787FE4F6D8FD758118020941F2
:100A1000BB010689828A83E0225002E722BBFE02E4
:090A2000E32289828A83E4932217
:10090600020800E493A3F8E493A34003F68001F2FF
:1009160008DFF48029E493A3F85407240CC8C333F2
:10092600C4540F4420C8834004F456800146F6DFC1
:10093600E4800B0102040810204080900A8FE47EB8
:10094600019360BCA3FF543F30E509541FFEE493B6
:10095600A360010ECF54C025E060A840B8E493A37D
:10096600FAE493A3F8E493A3C8C582C8CAC583CAA8
:10097600F0A3C8C582C8CAC583CADFE9DEE780BE60
:010A9C000059
:00000001FF
