:100A5E00210020005365743A0041003A00420043E1
:100A6E0000412100202000422100432100343700A4
:100A7E00202020202000413A00423A00433A005400
:010A8E000067
:10081200081CF2F6F4FCF8F9F1F30826F1F9F8FCF9
:10082200F4F6F2F30615000000000000012F0005A7
:100832003D01020304050533000000000007090022
:10084200000000000000011B00012500011400014E
:100852000800013219011019013819011119013961
:100862001901131902300000012400011200012EA7
:0A08720000013A00013B00013C00C8
:070B85002DF8E6F5907F64F6
:060B8C00AE071FEE600E33
:0C0B92007546027547EFD547FDD546FAC1
:030B9E0080EC22C6
:100B4600E4FDFCC3ED9FEC9E5015E4FBFA0BBB00E5
:0F0B5600010AEB647B4A70F50DBD00010C80E4D1
:010B6500226D
:06000300000000DFFB22FB
:100B0400C2957F78120003D295E4F93095107F01E5
:100B14007E00120B4609E9D3940540EF1F227F01A2
:010B240022AE
:0C0A2600120B047F017E00120B467FCCF7
:020A3200AE070D
:100A3400E4FBFAC2950545E54570020544EE1392C0
:100A4400957F0C120003D295EEC313FE0BBB00017D
:090A54000AEB64084A70DCAF06ED
:010A5D002276
:100AB9007D08C2950544D29505440544A295E433C1
:100AC900FCC43333335480FFEEC3134FFE7F091246
:060AD9000003DDDEAF06A4
:010ADF0022F4
:100C0E00120A267F44120A32120A267FBE020A32C6
:100BE900E4FFFE120C0E120AB9AB07120AB9EFFEA6
:020BF900EBFF10
:010BFB0022D7
:100BFC00C2A6C2A5C2A78F80D2A700C2A77F01023E
:020C0C000B8C4F
:0F0B25007C007D0AAF03AE0212059DEF2430FF66
:100B3400D2A6C2A5C2A78F80D2A700C2A77F0102F6
:020B44000B8C18
:100BBB007F01120BFC7F06120BFC7F0C120BFC7FD0
:090BCB0038120BFC7F01020B8CB7
:060AE0007BFF7A0A796732
:100AE600AD071205846016AF050D120BFC120584C6
:0E0AF600FF120B34740129F9E43AFA80E5226C
:0708DC00FB3395E0FA7F01F8
:1008E3008F448D45E54464017015E545247FFF126F
:1008F3000BFC120B257C007D0AAF03AE028019E5C9
:10090300446402701DE54524BFFF120BFC120B2546
:10091300AE02AF037C007D0A12059DED2430FF1269
:030923000B342270
:100BA100E4FDFC75B0F07F0A120B8CE5B054F0FD4A
:090BB10075B00FE5B0540F2DFFE3
:010BBA002218
:10043A00E4FB120BA1EF12062805017D04AD7E0430
:10044A00ECBD0495BE0529DB04D7DD047DDE051667
:10045A00EB04C2ED0465EE0000053A7B0174332516
:10046A002EF8A603052E120BA1EF64EE6003020517
:10047A003A80F37B027433252EF8A603052E120B5D
:10048A00A1EF64DE600302053A80F37B037433252F
:10049A002EF8A603052E120BA1EF64BE6003020517
:1004AA003A80F37B047433252EF8A603052E120B2B
:1004BA00A1EF647E707A80F67B057433252EF8A648
:1004CA0003052E120BA1EF64ED706580F67B0674AE
:1004DA0033252EF8A603052E120BA1EF64DD70500A
:1004EA0080F67B077433252EF8A603052E120BA17E
:1004FA00EF64BD703B80F67B087433252EF8A603A3
:10050A00052E120BA1EF647D702680F67B097433E9
:10051A00252EF8A603052E120BA1BFEB1380F87443
:10052A0033252EF87600052E120BA1EF64DB60F856
:10053A00E52E75F0058485F02EE533B53D17E534D3
:10054A00B53E12E535B53F0DE536B54008E537B598
:07055A0041037F01227F0035
:010561002277
:10096D00E51575F00412056285F015E51775F004AF
:10097D0012056285F017E51975F00412056285F010
:10098D0019E51675F00A12056285F016E51875F071
:10099D000A12056285F018E51A75F00A12056285CE
:0309AD00F01A221B
:10064E00120BA1BFE7107415252FF806120BA1EFA0
:10065E0064E7703080F6120BA1BFD70E7415252FEC
:10066E00F816120BA1BFD71C80F8120BA1BFB7143E
:10067E00052FE52FD394054003E4F52F120BA1EFC0
:10068E0064B760F812096D7FC1120BFC7F3A120B32
:10069E0034E5152430FF120B34E5162430FF120B0F
:1006AE00347FC5120BFC7F3A120B34E5172430FF52
:1006BE00120B34E5182430FF120B347FC9120BFCD9
:1006CE007F3A120B34E5192430FF120B34E51A244D
:1006DE0030FF120B347FCD120BFCE52F2431FF02BD
:0206EE000B34CB
:10087D00E4FFEFD39405502774092FF8E6FEC36407
:10088D00809498400874092FF8E4F6800EC3EE6446
:10089D00809480500674092FF876170F0F80D37F40
:1008AD0001EFD39405502774092FF8E6FEC3648039
:1008BD0094BC400874092FF8E4F6800EC3EE6480F2
:0E08CD009480500674092FF8763B0F0F80D3ED
:0108DB0022FA
:1001C100120BA1BF770CC3E50F6480948440030236
:1001D10002FC12087DC3E50F648094847BFF500606
:1001E1007A0A795E80047A0A79607F8D120AE6E5DF
:1001F1000F75F01912056285F00FC3E50F64809445
:10020100805003750F177BFF7A0A79627F80120A8B
:10021100E67A0A79677FC0120AE6E509FB3395E0C1
:10022100FA7D027F021208E37BFF7A0A79697FC3B4
:10023100120AE6E50AFB3395E0FA7D057F02120812
:10024100E37BFF7A0A796B7F87120AE6E50B7D096A
:100251001208DC7BFF7A0A79697F8A120AE6E50CCB
:100261007D0C1208DC7BFF7A0A796D7FC7120AE6E2
:10027100E50DFB3395E0FA7D097F021208E37BFF70
:100281007A0A79697FCA120AE6E50EFB3395E0FA2C
:100291007D0C7F021208E3E50FFB3395E0FA7D0F39
:1002A1007F011208E3120BA1BFE7107409251BF8A7
:1002B10006120BA1EF64E7703080F6120BA1BFD7D5
:1002C1000E7409251BF816120BA1BFD71C80F8125A
:1002D1000BA1BFB714051BE51BD394064003E4F53E
:1002E1001B120BA1EF64B760F8E51B2401FBE4339B
:1002F100FA7D057F011208E30201C17F01120BFCA7
:050301007F0A020B8CD5
:1006F000E5256509702BE514650A7025E51560216F
:10070000E50A241EF532850910C3648094BC400BB1
:1007100074C42532F532E50904F510753A017F01FC
:1007200022E525650B702BE514650C7025E5176037
:1007300021E50C241EF538850B11C3648094BC4060
:100740000B74C42538F538E50B04F511753B017FB2
:100750000222E525650D702BE514650E7025E5195F
:100760006021E50E241EF539850D13C3648094BC09
:10077000400B74C42539F539E50D04F513753C01BA
:060780007F03227F00222E
:10030600E53AB40115E5127011E515600DC2A0D2EB
:10031600A1D2A27F89120AE08049E53A64017043BE
:10032600E512603FD2A0D2A1D2A27BFF7A0A796FF2
:100336007F89120AE67FA0120B8C7A0A79727F896E
:10034600120AE61515C3E515648094805003E4F59A
:1003560015E4F512E50F2509F50975321975101919
:10036600E4F53AE53BB4011BE5127017E517601397
:10037600D2A0C2A1D2A27BFF7A0A796B7F89120A28
:10038600E68049E53B64017043E512603FD2A0D2A6
:10039600A1D2A27BFF7A0A79757F89120AE67FA02D
:1003A600120B8C7A0A79727F89120AE61517C3E551
:1003B60017648094805003E4F517E4F512E50F25E1
:1003C6000BF50B753819751119E4F53BE53CB401CD
:1003D60019E5127015E5196011D2A0D2A1C2A27B4F
:1003E600FF7A0A796D7F89020AE6E53C640170436B
:1003F600E512603FD2A0D2A1D2A27BFF7A0A797819
:100406007F89120AE67FA0120B8C7A0A79727F899D
:10041600120AE61519C3E519648094805003E4F5C1
:1004260015E4F512E50F250DF50D75391975131936
:04043600E4F53C228B
:100BD4005389F0438901C28DD28C758CD8758AEF04
:050BE400D2A9D2AF22EE
:10092600C3E508648094BC40060514E4F50822C3B8
:10093600E514648094BC40060525E4F51422C3E55D
:1009460025648094984004E4F52522C3E514648068
:100956009480500675143B152522C3E525648094C2
:0709660080500375251722E4
:100A8F001209267BFF7A0A79697F82120AE6E52529
:100A9F00FB3395E0FA7D017F011208E3E514FB3388
:0A0AAF0095E0FA7D047F010208E3E0
:1009B000120BA1BFBB197F0A120B8C120BA1BFBB7C
:1009C0000E74052514F514120BA1EF64BB60F81228
:1009D0000BA1BF7B157F0A120B8C120BA1BF7B0AE8
:0B09E0001514120BA1EF647B60F822DD
:1009EB00E4FDF544209616E52470127F0A120B8C59
:1009FB00209627741C120B850DBD08F72220971A21
:100A0B00E52470167F0A120B8C20970BE4FD7426DD
:0A0A1B00120B850DBD08F7751201DE
:010A250022AE
:10000E00120BBB120BD47BFF7A0A797B7FCE120ABE
:10001E00E61201C1120BA1EF64EE601C7FC0120A42
:10002E00E07A0A796B7FC4120AE67A0A796D7FC884
:10003E00120AE612064E80DC7F01120BFC7F0A12BA
:10004E000B8CE514B53209E525B51004E512601EDA
:10005E00E514B53809E525B51104E5126010E5146F
:10006E006539704FE52565137049E51270457F8A35
:10007E00120BFCE5332430FF120B34E5342430FF31
:10008E00120B34E5352430FF120B34E5362430FFE5
:10009E00120B34E5372430FF120B341206F012091E
:1000AE00EB12030612043AE5126401709512043A3B
:1000BE00EF608F7BFF7A0A797E7F8A120AE6D3E59C
:1000CE00256480949740417F01120BFC7F0A120B2E
:1000DE008C1201C1120BA1EF64EE60227BFF7A0A33
:1000EE0079677FC0120AE67A0A796B7FC4120AE634
:1000FE007A0A796D7FC8120AE612064E80D67F0103
:10010E00120BFC7F0A120B8C7BFF7A0A79847FC05C
:10011E00120AE67FC2120BFCE5152430FF120B34D7
:10012E007A0A79877FC4120AE67FC6120BFCE5179E
:10013E002430FF120B347A0A798A7FC8120AE67FBE
:10014E00CA120BFCE5192430FF120B347A0A797BA4
:10015E007FCE120AE6120BE97C007D101205F28E9C
:10016E00428F43D3E5439423E54294004005752422
:10017E00018003E4F524E5247BFF60067A0A795EAC
:10018E0080047A0A79607FCC120AE61209EB7BFFB3
:10019E007A0A798D7F86120AE6AB43AA427D087FE2
:1001AE00011208E3120A8F1209B01206F0120306AA
:0301BE00020050EC
:03000B00020B667F
:100B6600C0E00531E5317002053064644530700639
:0F0B76000508F530F531758CD8758AEFD0E0326F
:030000000207866E
:0C078600787FE4F6D8FD7581470207CDAE
:10056200C2D530F707B2D563F0FF05F030E70CB221
:10057200D5F4048463F0FF05F080018430D502F4E1
:02058200042251
:10058400BB010689828A83E0225002E722BBFE0275
:09059400E32289828A83E49322A8
:10059D00BC000BBE0029EF8DF084FFADF022E4CC42
:1005AD00F875F008EF2FFFEE33FEEC33FCEE9DEC0B
:1005BD00984005FCEE9DFE0FD5F0E9E4CEFD22ED51
:1005CD00F8F5F0EE8420D21CFEADF075F008EF2F9B
:1005DD00FFED33FD4007985006D5F0F222C398FD8C
:0505ED000FD5F0EA2229
:1005F200C2D5EC30E709B2D5E4C39DFDE49CFCEE24
:1006020030E715B2D5E4C39FFFE49EFE12059DC3F9
:10061200E49DFDE49CFC800312059D30D507C3E4F4
:060622009FFFE49EFE2292
:10062800D083D082F8E4937012740193700DA3A361
:1006380093F8740193F5828883E473740293686075
:06064800EFA3A3A380DF75
:1007920002000EE493A3F8E493A34003F68001F26F
:1007A20008DFF48029E493A3F85407240CC8C33368
:1007B200C4540F4420C8834004F456800146F6DF37
:1007C200E4800B0102040810204080900812E47EAD
:1007D200019360BCA3FF543F30E509541FFEE4932C
:1007E200A360010ECF54C025E060A840B8E493A3F3
:1007F200FAE493A3F8E493A3C8C582C8CAC583CA1E
:10080200F0A3C8C582C8CAC583CADFE9DEE780BED5
:01087C00007B
:00000001FF
