:0C0ED20001220001270001232101253727
:100B31007FDC120E66120E36120E7B120E1B120C89
:100B41006A750B00750C00750D24750E00750F008C
:100B51007510257511007512007513267B007A003A
:100B610079231208CFC290120D77120E4FBF77244E
:100B7100750B00750C00750D24750E00750F007551
:100B810010257511007512007513267B007A007906
:100B9100231208CF750B00750C00750D257B007AAB
:100BA100007923120CC18F27E52770BBC29080B753
:03000B00020BB134
:100BB100C0E0C0F0C0D075D000C000C004C005C006
:100BC10006C007AF27EF3395E0FEAD227C00C3EDF1
:100BD1009FEE6480F87480985004D290800FC3ED2A
:100BE1009FEE6480F8EC6480984002C2900522E593
:100BF1002275F00A8485F022758CD8758AEFD007AA
:0F0C0100D006D005D004D000D0D0D0F0D0E03253
:060E6600AE071FEE600E56
:0C0E6C007520027521EFD521FDD520FA7C
:030E780080EC22E9
:080EEB007F247ED9DEFEDFFC4E
:010EF30022DC
:040F08007F0BDFFE7E
:010F0C0022C2
:050EFC00007F14DFFE81
:010F010022CD
:050F0200007F0FDFFE7F
:010F070022C7
:0D0EC400007F087E017DF3DDFEDEFCDFFA1D
:010ED10022FE
:100EB4004E6F7748756D3A004E6F77546D703A00F7
:0C0EDF00D2A3C2A3120EEBD2A3020F0894
:100DB100E4FFFE30A30B000EEED3946440F57F6593
:100DC10022A2A3E433FFE4FE20A30B000EEED39492
:100DD1003240F57F6622E4FE30A30B000EEED39481
:060DE1003240F57F67229D
:010DE70022E9
:0A0C1000AB08AA09A90AEF1209FFB8
:100C1A00E4F50CF50DF50EF50EE4F50D20A30D0027
:100C2A00050DE50DD3943240F37F6822120F02308E
:100C3A00A30FAF0E7480A807088002C313D8FC4222
:100C4A000CE4F50D30A30D00050DE50DD3943240EB
:0F0C5A00F37F6922050EE50EC3940840BCAF0C72
:010C69002268
:060AAD008B088A09890A8A
:100AB300E4F50B120EDF120DB1EF706F120C1AABCF
:100AC30008AA09A90AEF1209ED120C1A90000112E3
:100AD3000C10900002120C10AB08AA09A90A90008E
:100AE30003120C16AB08AA09A90A900004EF120915
:100AF300FF90000112099EFF1209852FFFE433FEC8
:100B030090000212099E7C002FFFEC3EFE90000332
:100B130012099E2FFFEC3EFE90000412099EB507BA
:0D0B230007ECB506037F00227F6A227F6B7E
:010B300022A2
:100D77007BFF7A0E79B47F80120D427BFF7A0E7962
:100D8700BC7FC0120D427B007A007928120AADEFB2
:100D97007017AB287D087F01120D03AB2A7D087FF2
:0A0DA70002120D037FF4120E662203
:100CC1008B088A09890A120985FEE528D39E4013FB
:100CD100AB0BAA0CA90D120985FFE52AD39F40038E
:100CE1007F0922E528D39E5010AB0BAA0CA90D1247
:0F0CF1000985FFE52AD39F40037F02227F00225F
:100DE80057656C636F6D6520746F2075736521009E
:100DF800506C6561736520736574212020202D3E39
:100E080000746D703A0068756D3A004D4158004D98
:030E1800494E0040
:100E9000C2A6C2A5C2A78F80D2A700C2A77F0102A7
:020EA0000E66DC
:100EA200D2A6C2A5C2A78F80D2A700C2A77F010285
:020EB2000E66CA
:100E36007F01120E907F06120E907F0C120E907F8D
:090E460038120E907F01020E66C5
:060D3C007BFF7A0E791323
:100D42008F148B158A168917AB15AA16A9171209C3
:100D5200856021AF140514120E90AB15AA16A917BF
:100D6200120985FF120EA274012517F517E4351634
:050D7200F51680D422FB
:030D0000FB7F0175
:100D03008F148D158B16E514B40106E515247F8029
:100D130009E514B40222E51524BFFF120E90E5166F
:100D230075F00A842430FF120EA2E51675F00A84CA
:090D3300E5F02430FF120EA222AB
:100C6A0075080FE5082480FF7BFF7A0D79E8120DDD
:100C7A00427F2C120E661508C3E5086480948050E2
:100C8A00E275080FE50824C0FF7BFF7A0D79F81298
:100C9A000D427F2C120E661508C3E5086480948005
:100CAA0050E2120E4FBFEEFA7F64120E667F0112F7
:070CBA000E907F64020E663C
:1008CF008B088A09890A120E4FEF64EE7003020932
:1008DF007B850B17850C18850D19850E1A850F1B37
:1008EF0085101C85111D85121E85131FAB08AA09C3
:1008FF00A90A1208007BFF7A0E79097F80120D4238
:10090F007BFF7A0E790E7FC0120D427F85120D3C50
:10091F00AB08AA09A90A1209857D09120D007BFFF0
:10092F007A0E79177F8B120D42AB0BAA0CA90D1201
:10093F0009857D0F120D007FC5120D3CAB0EAA0F5E
:10094F00A910120985FB7D097F02120D037BFF7A27
:10095F000E79177FCB120D42AB11AA12A9131209F0
:10096F0085FB7D0F7F02120D030208D57F01120E4A
:06097F00907FE8020E6605
:100E7B005389F0438901C28DD28C758CD8758AEF5A
:050E8B00D2A9D2AF2244
:100E4F007590F07F0A120E66E59054F0FF75900FC3
:060E5F00E590540F2FFF87
:010E6500226A
:100800008B148A158916120E4FBF7713AB14AA15D5
:10081000A91674011209CB120E4FEF647760F8121B
:100820000E4FBF7B13AB14AA15A91674FF1209CB88
:10083000120E4FEF647B60F8120E4FBF7D13AB17A3
:10084000AA18A91974011209CB120E4FEF647D602A
:10085000F8120E4FBF7E13AB17AA18A91974FF1216
:1008600009CB120E4FEF647E60F8120E4FBFB71324
:10087000AB1AAA1BA91C74011209CB120E4FEF640C
:10088000B760F8120E4FBFBB13AB1AAA1BA91C749A
:10089000FF1209CB120E4FEF64BB60F8120E4FBF70
:1008A000BD13AB1DAA1EA91F74011209CB120E4F56
:1008B000EF64BD60F8120E4FBFBE13AB1DAA1EA998
:0F08C0001F74FF1209CB120E4FEF64BE60F822B7
:100E1B0075985043878053890F438920D28E758DE7
:0B0E2B00F4758BF4C2ABD2ACD2AF2246
:080EF4008F993099FDC299228B
:03000000020A21D0
:0C0A2100787FE4F6D8FD75812C020A688D
:10098500BB010689828A83E0225002E722BBFE0270
:09099500E32289828A83E49322A3
:10099E00BB010CE58229F582E5833AF583E022500E
:1009AE0006E92582F8E622BBFE06E92582F8E22258
:0D09BE00E58229F582E5833AF583E4932272
:1009CB00BB010989828A83F8E028F022500327F7BC
:1009DB0022BBFE05F8E328F3228A838982F8E4938D
:0209EB002822C0
:1009ED00BB010689828A83F0225002F722BBFE01E9
:0209FD00F322E3
:1009FF00F8BB010DE58229F582E5833AF583E8F02E
:100A0F00225006E92582C8F622BBFE05E92582C8D9
:020A1F00F222C1
:100A2D00020B31E493A3F8E493A34003F68001F2A3
:100A3D0008DFF48029E493A3F85407240CC8C333CA
:100A4D00C4540F4420C8834004F456800146F6DF99
:100A5D00E4800B0102040810204080900ED2E47E49
:100A6D00019360BCA3FF543F30E509541FFEE4938E
:100A7D00A360010ECF54C025E060A840B8E493A355
:100A8D00FAE493A3F8E493A3C8C582C8CAC583CA80
:100A9D00F0A3C8C582C8CAC583CADFE9DEE780BE38
:010EDE000013
:00000001FF
