:1007D4008F208C218D221209187FA01207AB1208DA
:1007E400F9AF201207AB1208F9AF221207AB1208B7
:0407F400F9020921DC
:02077B008F14D9
:10077D001209187FA01207AB1208F9AF141207ABBC
:10078D001208F91209187FA11207AB1208F9120805
:0D079D00188F157F01120905120921AF15F3
:0107AA00222C
:06088100AE071FEE600E41
:0C0887007520027521EFD521FDD520FA67
:0308930080EC22D4
:08090F007F247ED9DEFEDFFC2F
:0109170022BD
:04093D007F0BDFFE4F
:010941002293
:05093100007F14DFFE51
:01093600229E
:05093700007F0FDFFE50
:01093C002298
:0D08DF00007F087E017DF3DDFEDEFCDFFA08
:0108EC0022E9
:1008CF004E6F7748756D3A004E6F77546D703A00E2
:0C08ED00D2A3C2A312090FD2A302093D3E
:10071100E4FFFE30A30B000EEED3946440F57F6539
:1007210022A2A3E433FFE4FE20A30B000EEED39438
:100731003240F57F6622E4FE30A30B000EEED39427
:060741003240F57F672243
:01074700228F
:0A052900AB08AA09A90AEF12033279
:10053300E4F50CF50DF50EF50EE4F50D20A30D0015
:10054300050DE50DD3943240F37F6822120937304D
:10055300A30FAF0E7480A807088002C313D8FC4210
:100563000CE4F50D30A30D00050DE50DD3943240D9
:0F057300F37F6922050EE50EC3940840BCAF0C60
:010582002256
:0603E0008B088A09890A5E
:1003E600E4F50B1208ED120711EF706F120533AB2F
:1003F60008AA09A90AEF1203201205339000011278
:100406000529900002120529AB08AA09A90A90003D
:100416000312052FAB08AA09A90A900004EF1203DC
:10042600329000011202D1FF1202B82FFFE433FE10
:100436009000021202D17C002FFFEC3EFE900003DA
:100446001202D12FFFEC3EFE9000041202D1B50736
:0D04560007ECB506037F00227F6A227F6B52
:010463002276
:1006D7007BFF7A0879CF7F801206A27BFF7A0879A1
:1006E700D77FC01206A27B007A00792F1203E0EFB2
:1006F7007017AB2F7D087F01120663AB317D087F32
:0A070700021206637FF4120881223B
:100621008B088A09890A1202B8FEE52FD39E40136E
:10063100AB0BAA0CA90D1202B8FFE531D39F400301
:100641007F0922E52FD39E5010AB0BAA0CA90D12E6
:0F06510002B8FFE531D39F40037F02227F0022D2
:1007F8001202B8FFE530C39F4010AB26AA27A928EC
:100808001202B8FFE532C39F5003C2A222D2A2222D
:1005DA001202B8D3946340057463120320AB17AABE
:1005EA0018A9191202B8C3941E5005741E120320CA
:1005FA00AB1AAA1BA91C1202B8D394284005742866
:10060A00120320AB1DAA1EA91F1202B8C3940550DB
:07061A000574051203202204
:100464008B088A09890A7F0112077BAB08AA09A9AC
:100474000AEF1203207F0212077BAB0BAA0CA90D13
:10048400EF1203207F0312077BAB0EAA0FA910EF14
:100494001203207F0412077BAB11AA12A913EF12D7
:1004A4000320850B17850C18850D19850E1A850FE9
:1004B4001B85101C85111D85121E85131FAB08AAF0
:0604C40009A90A0205DA95
:09091800D2A1D2A0C2A0C2A1220A
:09092100C2A1C2A0D2A1D2A02201
:0207AB00AD0798
:1007AD00E4FB74807E00A803088006CEA2E713CE7A
:1007BD0013D8F8FFEDF582EF558224FF92A0D2A158
:0607CD00C2A10BBB08DC19
:0107D3002203
:10081800E4FFD2A0FE30A00D7480A806088002C3B1
:0D08280013D8FC4207D2A1C2A10EBE08E801
:0108350022A0
:0A090500EF24FF92A0D2A1C2A122AC
:0B08F900D2A0A2A0E433FFD2A1C2A154
:0109040022D0
:10086A007590F07F0A120881E59054F0FF75900F99
:06087A00E590540F2FFF72
:010880002255
:10000E008B148A15891612086ABF771EAB14AA15AF
:10001E00A91674011202FE1202B8FD7C007F0112B5
:10002E0007D412086AEF647760F812086ABF7B1E65
:10003E00AB14AA15A91674FF1202FE1202B8FD7CAB
:10004E00007F011207D412086AEF647B60F8120871
:10005E006ABF7D1EAB17AA18A91974011202FE12EF
:10006E0002B8FD7C007F021207D412086AEF647D8D
:10007E0060F812086ABF7E1EAB17AA18A91974FF82
:10008E001202FE1202B8FD7C007F021207D4120883
:10009E006AEF647E60F812086ABFB71EAB1AAA1B1D
:1000AE00A91C74011202FE1202B8FD7C007F03121D
:1000BE0007D412086AEF64B760F812086ABFBB1E55
:1000CE00AB1AAA1BA91C74FF1202FE1202B8FD7C09
:1000DE00007F031207D412086AEF64BB60F812089F
:1000EE006ABFBD1EAB1DAA1EA91F74011202FE120D
:1000FE0002B8FD7C007F041207D412086AEF64BDBB
:10010E0060F812086ABFBE1EAB1DAA1EA91F74FF9F
:10011E001202FE1202B8FD7C007F041207D41208F0
:07012E006AEF64BE60F822D5
:1007480057656C636F6D6520746F20757365210044
:10075800506C6561736520736574212020202D3EDF
:100768000068756D3A00746D703A004D4158004D3F
:03077800494E00E7
:1008AB00C2A6C2A5C2A78F80D2A700C2A77F010292
:0208BB000881B2
:1008BD00D2A6C2A5C2A78F80D2A700C2A77F010270
:0208CD000881A0
:100851007F011208AB7F061208AB7F0C1208AB7F39
:09086100381208AB7F0102088186
:06069C007BFF7A07797371
:1006A2008F148B158A168917AB15AA16A917120271
:1006B200B86021AF1405141208ABAB15AA16A9171E
:1006C2001202B8FF1208BD74012517F517E435169A
:0506D200F51680D422A2
:03066000FB7F011C
:100663008F148D158B16E514B40106E515247F80D0
:1006730009E514B40222E51524BFFF1208ABE51601
:1006830075F00A842430FF1208BDE51675F00A845C
:09069300E5F02430FF1208BD223D
:1005830075080FE5082480FF7BFF7A077948120678
:10059300A27F2C1208811508C3E50864809480505B
:1005A300E275080FE50824C0FF7BFF7A077958122C
:1005B30006A27F2C1208811508C3E5086480948085
:1005C30050E212086ABFEEFA7F641208817F0112BB
:0705D30008AB7F6402088100
:100135008B088A09890A7F011208AB12086AEF64E5
:10014500EE700302020A850B17850C18850D1985BB
:100155000E1A850F1B85101C85111D85121E851312
:100165001FAB08AA09A90A12000E850B17850C18E2
:10017500850D19850E1A850F1B85101C85111D858A
:10018500121E85131FAB08AA09A90A1205DA7BFFFF
:100195007A0779697F801206A27BFF7A07796E7FDD
:1001A500C01206A27F8512069CAB08AA09A90A12ED
:1001B50002B87D091206607BFF7A0779777F8B127B
:1001C50006A2AB0BAA0CA90D1202B87D0F12066090
:1001D5007FC512069CAB0EAA0FA9101202B8FB7DB3
:1001E500097F021206637BFF7A0779777FCB1206B8
:1001F500A2AB11AA12A9131202B8FB7D0F7F02123E
:0F02050006630201407F011208AB7FE802088107
:06092A00012900012E006E
:100214007FDC120881120851120896120836750BF9
:1002240000750C00750D2B750E00750F0075102CE4
:1002340075110075120075132D7B007A00792A124E
:100244000464120583750B00750C00750D2B750E77
:1002540000750F0075102C75110075120075132DA3
:100264007B007A00792A120135C2901206D712084F
:100274006ABF7724750B00750C00750D2B750E0085
:10028400750F0075102C75110075120075132D7BF8
:10029400007A00792A120135750B00750C00750D72
:1002A4002C7B007A00792A1206218F2EE52E70BB52
:0402B400C29080B7BD
:03000B000204CA22
:1004CA00C0E0C0F0C0D075D000C000C004C005C0F4
:1004DA0006C007AF2EEF3395E0FEAD297C00C3EDD1
:1004EA009FEE6480F87480985004D290800FC3ED18
:1004FA009FEE6480F8EC6480984002C2900529E57A
:10050A002975F00A8485F029758CD8758AEFD00789
:0F051A00D006D005D004D000D0D0D0F0D0E03241
:100896005389F0438901C28DD28C758CD8758AEF45
:0508A600D2A9D2AF222F
:1008360075985043878053890F438920D28E758DD2
:0B084600F4758BF4C2ABD2ACD2AF2231
:080003008F993099FDC299228A
:03000000020354A4
:0C035400787FE4F6D8FD75813302039B2E
:1002B800BB010689828A83E0225002E722BBFE0244
:0902C800E32289828A83E4932277
:1002D100BB010CE58229F582E5833AF583E02250E2
:1002E10006E92582F8E622BBFE06E92582F8E2222C
:0D02F100E58229F582E5833AF583E4932246
:1002FE00BB010989828A83F8E028F022500327F790
:10030E0022BBFE05F8E328F3228A838982F8E49360
:02031E00282293
:10032000BB010689828A83F0225002F722BBFE01BC
:02033000F322B6
:10033200F8BB010DE58229F582E5833AF583E8F001
:10034200225006E92582C8F622BBFE05E92582C8AD
:02035200F22295
:10036000020214E493A3F8E493A34003F68001F29D
:1003700008DFF48029E493A3F85407240CC8C3339E
:10038000C4540F4420C8834004F456800146F6DF6D
:10039000E4800B010204081020408090092AE47ECA
:1003A000019360BCA3FF543F30E509541FFEE49362
:1003B000A360010ECF54C025E060A840B8E493A329
:1003C000FAE493A3F8E493A3C8C582C8CAC583CA54
:1003D000F0A3C8C582C8CAC583CADFE9DEE780BE0C
:0109300000C6
:00000001FF
